S0210000626F6F746C6F616465722D756172742D786D6F64656D2D6372632E733337A3
S3150000080008100020E3300000E1300000B52B0000A6
S31500000810E1300000E1300000E1300000E13000008E
S31500000820E1300000E1300000F4360000E130000065
S31500000830E1300000A4360000E1300000E1300000A5
S31500000840E1300000E1300000E1300000E13000005E
S31500000850E1300000E1300000E1300000E13000004E
S31500000860E1300000E1300000E1300000E13000003E
S31500000870E1300000E1300000E1300000E13000002E
S31500000880E1300000E1300000E1300000E13000001E
S31500000890E1300000E1300000E1300000E13000000E
S315000008A0E1300000E1300000E1300000E1300000FE
S315000008B0E1300000E1300000E1300000E1300000EE
S315000008C0E1300000E13000000348044B834202D0CF
S315000008D0034B03B1184770476810002068100020CA
S315000008E0000000000548064B1B1AD90F01EBA301B7
S315000008F0491002D0034B03B1184770476810002017
S31500000900681000200000000010B5064C237843B99B
S31500000910FFF7DAFF044B13B10448AFF3008001235D
S31500000920237010BDB210002000000000B438000093
S3150000093008B5054B1BB105490548AFF30080BDE876
S315000009400840FFF7CFBF00BF00000000681000207E
S31500000950B4380000024A00231370024A137070472D
S31500000960B4100020B310002038B50378042B0446D9
S315000009700D463FD009D8012B0BD0032B4FF018039F
S315000009803CD040F603102B7038BD182B36D0432BC5
S31500000990F4E7224B4278197801BB012A03D01523CC
S315000009A040F60410EFE71A70A3781344FF2BF6D134
S315000009B000228021E01C02F009FB94F88320C0F39A
S315000009C00F239A4221D194F88430C0B2834220D1B9
S315000009D0134B62781A7000200623D4E7104B1B785D
S315000009E093420ED00133DBB29342DDD0152340F69D
S315000009F00510C8E7062340F60710C4E740F60810BE
S31500000A00C1E7062340F60610BDE7152340F602109F
S31500000A10B9E7152340F60110B5E700BFB310002073
S31500000A20B41000200149024800F03AB8C035000071
S31500000A308010002010B592B018494722684602F08F
S31500000A406DFD02F0A1F8C0F30363092B8CBF3733A9
S31500000A5030330A228DF81430C0F30343B3FBF2F1AE
S31500000A6002FB1133303300F00F008DF81730B0FB66
S31500000A70F2F302FB130001F13004303003F13001D0
S31500000A808DF819108DF81A000122472168468DF855
S31500000A90164000F091FC002012B010BDD0350000C9
S31500000AA02DE9F04F0024F9B094220646884653A853
S31500000AB021468DF80F4002F04FFD2146482205A839
S31500000AC002F04AFD2146682217A802F045FD00F013
S31500000AD06BFBDFF81093DFF810A3DFF810B33C27A9
S31500000AE001254FF0FF346B1E052B09D8DFE813F004
S31500000AF00C001E0041005B005401C0000425F2E713
S31500000B00FFF798FF0125EEE74FF47A7104A802F08B
S31500000B1025F938B99DF81030312B05D0322B0CBF92
S31500000B20052500253C27DEE70225FBE701221121EA
S31500000B30A94800F041FC28220021304602F00CFDB5
S31500000B40202317AA05A953A802F005FA0025FF23BA
S31500000B50737001210520758000F054FB00F078FCCD
S31500000B6018B10121284600F0E9FCFFF7F3FE032542
S31500000B70B9E7432001F0BDFF00214FF47A7000F081
S31500000B8041FB00F065FC18B900F060FB0028F8D0C6
S31500000B9000F05EFC0028B1D1013FA4D1182001F07D
S31500000BA0A8FF00259FE7002185220DF1C50002F070
S31500000BB0D3FC002140F6B83000F024FB00F048FCDE
S31500000BC088B34FF47A7300930123194604AA0DF1F2
S31500000BD0C50000F061FC9DF8C530012B0DD140F633
S31500000BE0B8320092842104AA0DF1C60000F054FC2C
S31500000BF0049B842B04461AD1D8B90DF10F010DF1CF
S31500000C00C500FFF7B1FE40F60713984204461AD115
S31500000C10B378A3B1F37893B106259DF80F00182891
S31500000C2008BF062508E000F011FB0028C6D040F2F8
S31500000C30047415208DF80F0001F05BFF53E71823AD
S31500000C408DF80F30E8E70028E7D19DF8C530012B75
S31500000C50E3D1CDF80080802332AA314653A800F0B4
S31500000C6021FD04460028D8D018238DF80F30D4E78C
S31500000C700121002000F062FC01210A2000F0C2FAE6
S31500000C809DF80F30062B4FF0010208D140F60713EE
S31500000C909C4204D151481B2100F08EFB81E71A21AA
S31500000CA0504600F089FBA4F51063B3F5E06F4FF0F2
S31500000CB0010213D24A48112100F07EFB40F60613CA
S31500000CC09C4213DCB4F5106F10D0A4F60213042B6B
S31500000CD04ED8DFE803F04F474B51530010215846DA
S31500000CE000F06AFB40F606139C421ADC9DF80F30B2
S31500000CF09F2B4FEA13108CBF3730303000F094FB37
S31500000D009DF80F0000F00F0009288CBF37303030F7
S31500000D1000F08AFB0D2000F087FB0A2000F084FB20
S31500000D203FE7A4F58053013B092BDFD8A4F5805398
S31500000D30013B092BDAD801A252F823F0910D0000ED
S31500000D40ED0C0000ED0C0000950D0000850D000077
S31500000D508D0D0000910D0000890D0000810D000031
S31500000D60910D000021238DF80F30BFE72223FAE70B
S31500000D702323F8E72423F6E72523F4E72723F2E7DE
S31500000D804123F0E74323EEE74423ECE74523EAE774
S31500000D904F23E8E75023E6E7B378BBB1F378ABB16E
S31500000DA033789B070DD5756801F0EEFE854204D9B0
S31500000DB0716A4FF4004000F0DBF801221321484627
S31500000DC06AE740F2012000F0BBF9F6E740F20320A3
S31500000DD000F0B6F9E5E600BF803600006536000093
S31500000DE03A360000173600004B3600002A3600005F
S31500000DF0002337B59B6A14461A68134B9A420D4670
S31500000E0020D100F5004310F5004F01931AD2019B43
S31500000E10B3F5802F16D2019BC3F58023A34211D3CD
S31500000E2040B9D0F828385A69B2F5004F02D9186986
S31500000E3001F04AFF01982246294603B0BDE830403A
S31500000E4001F068BE03B030BDAD1007B0F0B5421E6C
S31500000E50D11C85B0034618D80D4C6E4604F1100718
S31500000E6020686168354603C50834BC422E46F7D172
S31500000E7004A90F3311F8014D12F8010F844204D171
S31500000E809A42F7D1012005B0F0BD0020FBE700BF74
S31500000E9091360000F0B5036803F16043B3F5F84FEF
S31500000EA004469FB04FF000002AD8D0F8282863687F
S31500000EB016699E4224D8B3F5802F21D8656B06F1BA
S31500000EC04003AB4250D8B5F5802F4DD82846FFF7E2
S31500000ED0BDFF002848D0284601F04FFE80B16F695B
S31500000EE077B1022F0ED1AB69C4F1040119444FF05A
S31500000EF0FF32204600F0A2FE1C4BC31A584258414E
S31500000F001FB0F0BD40F2046328460393FFF79EFF2F
S31500000F100028F5D0012F25D1AD69AE4222D8AC42CA
S31500000F2020D8B5F5802F1DD804A802F08DF82A1B0D
S31500000F30214604A802F092F804A802F091F800F005
S31500000F40D7FE044600F0D8FE2346009005F12002A5
S31500000F50294604A800F08CFE03900398B0FA80F0AE
S31500000F604009CDE70020CBE70120C9E7E320BBDE3F
S31500000F7008B54FF0FF3200F061FE044B984203D1F2
S31500000F8040F2092000F0DCF8002008BDE320BBDEBB
S31500000F90314B13B501225A6401F086FD044601A8BF
S31500000FA001F064FD8E2C1CD82C49D1F8B00040F01D
S31500000FB00403C1F8B0302A4B4FF050121A601A637E
S31500000FC01A66C3F89020C3F8C020C3F8F020C1F811
S31500000FD0B000224AD36A23F07F0343F02003D36292
S31500000FE001E08F2CF5D09DF80530012B01BF1D4A7D
S31500000FF0D2F8643143F00403C2F864311A4B00227C
S31500001000C3F8B42A01F0C8FD00F078F801F06CFDD1
S3150000101001F06CFD18B14FF4017000F091F8FFF784
S3150000102001FD044601F064FD1CB140F203739C42CD
S3150000103006D140F2012000F083F84FF4017005E07C
S31500001040A4F20574012CF8D840F2032000F078F8D9
S31500001050002002B010BD00BF00000E4000400E4050
S3150000106000A0004000300E400000C64307B5012333
S315000010708DF806308DF807301E4B5B685A050FD584
S3150000108000F07CF8A0F2022080B2072808D8C92315
S31500001090C340DB0742BF00238DF806308DF80730CA
S315000010A04FF480435B68013308D14FF4027000F0BF
S315000010B03BF800238DF806308DF807309DF8073091
S315000010C063B14FF48040FFF7E5FE8DF806009DF80A
S315000010D006301BB94FF4027000F026F89DF8063072
S315000010E02BB1054B4FF48040986001F059FD03B0D9
S315000010F05DF804FB00500E4000ED00E0024B4CF2A0
S315000011003C325A80704700BF00000020054B5B88C8
S3150000111023F00F034AF6C0309BB21B1A58425841BF
S31500001120704700BF00000020044A08B51080FFF792
S31500001130EDFF10B94FF20F03538008BD00000020E9
S3150000114008B5FFF7F1FF0A4A136823F4E06343F496
S3150000115000731360BFF34F8F0649074BCA6802F44A
S31500001160E0621343CB60BFF34F8F00BFFDE700BFC4
S3150000117000500E4000ED00E00400FA05094B5A88C5
S315000011804FF20F018A4201D1188870473AB91B887D
S31500001190012B40F2022018BF4FF4007070474FF445
S315000011A000707047000000201FB5134B1A6842F408
S315000011B080121A60D3F8C02042F00102C3F8C020A2
S315000011C000F0DCF94FF47A23B0FBF3F00B4B0D2261
S315000011D0186000210DF1010002F0BEF901238DF81F
S315000011E0003007480A2369468DF8023002F08BF872
S315000011F005B05DF804FB00BF00400E40A8100020BB
S315000012000080014030B50D4D0D4A2D68536A15FB1F
S3150000121000F59CB215FA83F00A4B80B21880A04202
S31500001220094B2CBF002401241C7011B1536A834260
S31500001230FCD101235361936130BD00BFA81000208B
S3150000124000800140B0100020B5100020094B0A4A6A
S31500001250D868127800F001000AB108B9704738B9A9
S31500001260586A064B1B88984234BF002001207047FD
S315000012700120704700800140B5100020B01000200A
S3150000128070B5394E394A3368394D3A4803F134015D
S3150000129091601C3301216B606B6201F0A9FA36483C
S315000012A0012101F0A5FA01214FF48A4001F0A0FACC
S315000012B07068012101F09CFA3368304940F6AA6251
S315000012C00024DA6041F205021C605C665A609C608C
S315000012D05C61DC6499645C679C67DC675A601A68C9
S315000012E01A6000F04BF900F5E1434FF4E1125B019F
S315000012F0B3FBF2F3224A203B02EAC30332682146DB
S31500001300536120460123042201F0B8FA01231A464C
S315000013101946204601F0B2FA3368032205219C677C
S315000013205A67D960174B4FF0E06119604FF44021BE
S315000013301C62DC625C63DC66C3F880100131C3F8B2
S315000013408840C3F88440C3F89850C3F8B0100E49DB
S31500001350C3F8B840C3F8B4408A620122DA6303F1E5
S31500001360C06302229A6070BD581000204810002009
S31500001370081000204041050000250A00F9FF010081
S31500001380F8FF7F0000200E4000200E44084B986AAC
S3150000139010F0020006D003F1806302221A629A62FC
S315000013A0012070471B6A9B07FBD4024B0222F6E71B
S315000013B000200E4000200E447F2938B5044615460D
S315000013C024D8FFF7E3FF20B3134B20466218904260
S315000013D00DD1124B1A88013961F30E121A80104A88
S315000013E0C2F8C8300223D36335B9002038BD10F8DF
S315000013F0014B03F8014BEAE7FFF7C8FF0028FBD0D3
S31500001400084B1A6813699B06FCD5EEE741F20310F8
S31500001410ECE741F20620E9E7B6100020481000206C
S3150000142000200E405810002008B50146FFF7AEFF19
S315000014300028FBD0054B1B681A695006FCD559637A
S315000014401A699206FCD5002008BD00BF581000207E
S315000014500E4B0F4AD3F89430106840F201129342B3
S3150000146005D190B10023C0F500701844704740F2D2
S315000014700222934216BF074A4FF480739B1A984282
S3150000148002D0F0D2181A70470020704700200E4094
S31500001490AC100020361100202DE9F047089D0446C7
S315000014A00E461746E3B9FFF7D3FFB04228BF3046D2
S315000014B01F4ADFF884C01F490546234620184FF00F
S315000014C0010E4FF000084FF0020983421AD107B10E
S315000014D03D6041F20420AE4298BF0020BDE8F0878F
S315000014E02DB1FFF761FE00212846FFF78BFEFFF7BF
S315000014F0AFFFB042D7D2002DF9D0FFF7A7FE0028E4
S31500001500F5D0D0E714681CF804A003F801AB013449
S31500001510B4F5007F146004D1C2F80080C1F80890C9
S31500001520D3E7B4F5807F08BFC1F808E0CDE700BF78
S31500001530AC10002000200E463611002010B10B4BD7
S3150000154002221A6279B1094A094901231362936298
S3150000155002F17C420020C2F8981006490860D36365
S31500001560054B02229A600020704700BF00200E44FF
S3150000157008100020AC10002000200E4630B51B4B92
S3150000158087B001AA03F1100518685968144603C408
S315000015900833AB422246F7D11B78154A2370D2F89E
S315000015A0943003F00703022B1BD01369C3F30443E3
S315000015B0102B18D818336B440E4913F8143C4B43C0
S315000015C00D498B4203D11269C2F34162D340084AE6
S315000015D0D2F80001C0F304200130B3FBF0F007B0ED
S315000015E030BD064BF3E7064BF1E700BF3C37000082
S315000015F000400E4040420F0000093D0000F0490245
S31500001600C0EA2101074930B5024600230C2505FB37
S3150000161003F460180C59944203D001330A2BF6D117
S31500001620002030BD50370000F0B587B000230827F2
S31500001630CDE9013315463B46009704AA044601F05E
S31500001640B8FB41F203039842064623D194F843308F
S3150000165053B1E06C3A4604A901F000FD04AAA06C5F
S315000016603B46114601F0DFFC059A6A6094F8432078
S31500001670049B2B6052B9094A934207D0084A934209
S3150000168004D0E06C082204A901F0E8FC6B6823652D
S3150000169000236365304607B0F0BD00BFF70A0AF7BE
S315000016A0FC0404FC2DE9F04FA7B0CDE913239846BE
S315000016B0309F002304460E4615934FF00109159AF4
S315000016C0424501D30020C4E094F84630102BF7D8E9
S315000016D0DFE813F05A00A700A100420029000F011D
S315000016E0880129008001290080013A02AF02110019
S315000016F005010402AD020025636D0F2B00F28F80F9
S315000017001023009316AA4023CDE9019513A920467C
S3150000171001F04FFB0B900B9A41F203039A4200F043
S31500001720D0800B9B3CE04FF0010AD4E914539D4254
S3150000173075D9ED1ADDE914329B1A94F84020032D71
S31500001740134440F25981032B00F26D8113A9204600
S3150000175001F00EFB002323E0A44D636D072B00F27E
S31500001760D5800823009316AA4023CDE9019913A931
S31500001770204601F01EFB0D900D9A41F203039A429A
S3150000178000F0EE800D9B0BE016AA13A92046FFF78A
S315000017904BFF0890089B41F20302934207D0089B37
S315000017A00793079A41F203039A4288D050E0179AAA
S315000017B022650022169962658D4A914240F0E280C8
S315000017C0022284F84620EBE70823009316AA40235A
S315000017D0CDE9019513A9204601F0EBFA0990099A83
S315000017E041F203039A4201D0099BD9E7169B03F005
S315000017F07F43B3F1407F05D0102384F8463041F291
S315000018000903CDE7179BD90706D594F8423043F074
S31500001810010384F842300025636D072BD4D90123D8
S31500001820DDE016AA13A92046FFF7FEFE0A900A9DE0
S3150000183041F203039D420FD00A9D0795079A41F294
S3150000184003039A423FF43BAF079B0BB10023F370AF
S31500001850079827B0BDE8F08F1698FFF7D3FE28B992
S31500001860102384F8463041F20805E6E7437994F8F8
S3150000187090209A4205D9102384F8463041F20E058D
S31500001880DBE702685B498A4205D00289D20748BF76
S31500001890013384F8903094F84230D9070DD5028987
S315000018A094F84330920706D53BB1102384F84630AE
S315000018B041F20105C1E7002BF7D0037984F84630E1
S315000018C0BBE7D4F848A000F01BFA8023CDE900035B
S315000018D017AA01230221504601F085FB0CE7226D71
S315000018E0A2650123002284F84330E26584F846307D
S315000018F0E5E600213C2217A8169101F02DFE0125F0
S31500001900D4E91432934204D884F8465041F20303D2
S3150000191046E7009316AA4023CDE9015513A92046B0
S3150000192001F047FA0C900C9A41F203039A4201D057
S315000019300C9B35E70DF1580C06F108030DF1700EFE
S31500001940624603CA724518605960944603F108035B
S31500001950F6D110681860337843F001033370CFE78F
S315000019603378179943F002033370169B7360236D27
S315000019700022083B7362936A1868A84205D1DB68A7
S315000019808B4205D0102384F8463041F2010307E765
S31500001990042384F8463094F84530626643F0010328
S315000019A084F84530D9E60423009316AA4023CDE9EE
S315000019B0015513A9204601F0FCF90E900E9A41F24A
S315000019C003039A4201D00E9BEAE6226D169B042A77
S315000019D001D923660125636D032BE4D9092384F815
S315000019E0463093E70023636607237FE7AD1007B011
S315000019F0EB17A603F90707F99D423FF6A7AE9D42EE
S31500001A0028BF1D46402316AACDE901AA009513A9B1
S31500001A10204601F0CEF90F900F9A41F203039A4245
S31500001A200AD00F9BBCE6402D28BF40259D4228BF0B
S31500001A301D4625F00305E5E794F84630072B1CD034
S31500001A40042DC5F1040B059388BF4FF0000B16ABB0
S31500001A505A465819FF2101F07FFD059B092BAB441F
S31500001A6019D13B465A4616A9204601F023FA0F9093
S31500001A700F9B002B3FF459AED3E7D7F808B0BBF164
S31500001A80000FDDD03B68606E2A4616A9D847636E04
S31500001A902B44636649E6042B7FF447AE73789907B7
S31500001AA07FF543AEFB68002B3FF43FAE626E042A1F
S31500001AB00BD80BEB0203062B07D917AB9B1A1A6838
S31500001AC0C4F884204FF0FF321A603B68FD68606EF0
S31500001AD05A4616A9A847636E5B44DAE794F8445061
S31500001AE0002D7FF49CAE4023009316AACDE9015544
S31500001AF013A9204601F05DF91090109A41F20303F4
S31500001B009A4201D0109B4BE6E06C01F0A9FAD4F89A
S31500001B104CA000F0EDF8834600F0EEF85B4600902E
S31500001B201EAA16A9504600F0A3F81090109B33B1D8
S31500001B301023F57084F8463041F2060330E601239F
S31500001B40F37084F844306AE600234FF00408CDE9C8
S31500001B50013316AA4023CDF8008013A9204601F0D0
S31500001B6028F91190119A41F203039A4202D0119B6F
S31500001B7007936DE6D4F888202F4B9A4205D01023A0
S31500001B8084F8463041F20503F2E70123F37094F836
S31500001B904530DA0707D5FD682DB13B68424604F1AA
S31500001BA084014046A84794F845309B0707D5FD6851
S31500001BB02DB104223B6804F184011046A847236E28
S31500001BC073B37D6865B304F180084FF0FF330422D8
S31500001BD0414612A8129301F0AFFC28B13B680422DB
S31500001BE0414648F20400A84704F168090422494620
S31500001BF012A801F0A1FC98B100231422D3F82838CA
S31500001C00D3F8108004F16C01D7E9003508F108001B
S31500001C10A8470422D7E90035494608EB0200A84741
S31500001C200123B3700C2384F846300023A0E7002379
S31500001C30F37041F207000CE6E320BBDE10B50A4C58
S31500001C40D4F8B03043F02003C4F8B030074B012479
S31500001C501C6001449A605C60884201D1D86910BD5D
S31500001C6010F8012B9A61F7E700400E4000C00140D2
S31500001C702DE9F041A2B00E46DDF8A08015461F46BC
S31500001C80044670B369B362B35BB3B8F1000F28D0F2
S31500001C901548012100F0ACFD4022002102A801F008
S31500001CA05BFC394602A801F0EDF912AF41460AA8DD
S31500001CB001F0E8F940220021384601F04DFC31469A
S31500001CC0384601F0DFF929461AA801F0DBF9074882
S31500001CD0009702AB2022214600F0BAFA22B0BDE8F6
S31500001CE0F08140F20160F9E700150A0000000F409C
S31500001CF0004870474A43E00F004870476A43E00FC8
S31500001D00004870478642E00F2DE9F04104461D4623
S31500001D100F46904600211C22181D01F01DFC0123D0
S31500001D202B6001F0E9F94146064604F5807001F0A2
S31500001D3050FA394604F5827004F5847701F049FAC1
S31500001D402946384601F045FA304601F0D9F90D4EDC
S31500001D500D4B0E4A0E490F4823656369DB010BD50F
S31500001D6001F0CAF929460446384601F03AFA2046F7
S31500001D70BDE8F04101F0C4B922656165A065E6657C
S31500001D80EBE700BF3938010039398401D02484FCDF
S31500001D901C82FED88B1C81A02DE9F04F8DB0044625
S31500001DA017460D461E4601F0A7F904F5827805F19F
S31500001DB0400B81465946404601F00BFA04F58673FE
S31500001DC0184604F5887A3946039301F002FA07F1BA
S31500001DD02001504601F0FDF9484601F091F9414ACB
S31500001DE02265414A62650127404AA265E76501F01E
S31500001DF083F929460190404601F0EBF904F5847910
S31500001E0005F1200211464846029201F0E2F95946D0
S31500001E10504601F0DEF9019801F072F93449216566
S31500001E2034496165A76501F067F904F5807B824650
S31500001E3006F14001584601F0D4F904A9484601F0DC
S31500001E40D0F9504601F05CF901F056F9039B29469A
S31500001E508246184601F0BDF9504601F051F9264B6D
S31500001E602365264B63656FF42672A3F5FE231344A0
S31500001E70A365E76501F040F9029A0546114640461A
S31500001E8001F0A7F9284601F03BF91D4B23651D4BD0
S31500001E906365A76501F030F931460546484601F00D
S31500001EA0A0F9284601F02CF901F026F904A9054607
S31500001EB0404601F08EF9284601F022F9124B2365BF
S31500001EC0124B6365A76501F017F906F12001044678
S31500001ED0584601F086F9204601F012F90DB0BDE82A
S31500001EE0F08F00BF8AD11C81D91C83D11C81E11CD3
S31500001EF0D01482CB1481E11C8CE11C811C84D91C7A
S31500001F00E014D8141482E11C84D31482D11CE0148A
S31500001F102DE9F041044690B00F46244E0521904627
S31500001F2001F0CCF900232360236363630FCE08AD71
S31500001F300FC596E80F0085E80F0008AA6B4607F163
S31500001F4040012046FFF7E0FE01F0D6F804F586765C
S31500001F500546694604F5827001F03BF9394630467C
S31500001F6001F037F907F1200104F5887001F031F925
S31500001F70284601F0C5F80E4B23650E4B63650E4BE4
S31500001F80A3650123E36501F0B7F808F120010546D2
S31500001F9004F5807001F025F94146304601F021F93B
S31500001FA0284601F0ADF810B0BDE8F081D437000046
S31500001FB08AD11C81D91C83D11C81E11C2DE9F04FEB
S31500001FC0A5B01D460446CDE9021205A81C22002133
S31500001FD001F0C2FA4FF0010820220021284605F13F
S31500001FE02007CDF8108001F0B7FA202200213846EC
S31500001FF001F0B2FA05F140031846202200210093B1
S3150000200001F0AAFA0521204601F058F900232360C1
S3150000201023636363039BDB69002B4FF0FF060BDB37
S31500002020013E09D00399721106F01F0351F82220D0
S3150000203008FA03F31342F3D001F05EF804F5827355
S31500002040394680461846019301F0C3F8404601F030
S3150000205057F8734B2365734B6365734BA36501F0A8
S315000020604BF804F5807914A98046484601F0B9F882
S31500002070404601F045F801F03FF8294680464846BB
S3150000208001F0A7F8404601F03BF8684B2365684B22
S3150000209063654FF48673A36501F02EF804F5867820
S315000020A082460CA9404601F09CF81CA9484601F05E
S315000020B098F8504601F024F801F01EF88246DDE952
S315000020C0001001F086F8504601F01AF8594B2365C6
S315000020D00123636501F010F804F5847A29468346E6
S315000020E0504601F076F8584601F00AF8524A226541
S315000020F002F1D94202F5DE1202F595626265A2F599
S3150000210086120123A2F2BA42A265E36500F0F4FF4B
S315000021101CA98346504601F05CF80CA9404601F024
S3150000212058F8584600F0ECFF444A2265444A626576
S31500002130444AA26500F0E0FF2946834604F588700C
S3150000214001F04FF8584600F0DBFF00F0D5FF3946A6
S315000021508346019801F03DF85046009901F039F8A0
S3150000216014A9404601F035F8584600F0C9FF364A32
S315000021702265364A626500F0BFFF009982464846EE
S3150000218001F02FF83946404601F02BF8504600F092
S31500002190B7FF06F01F0101238B407211039951F816
S315000021A02220134211D0284600F05DFF38B1384690
S315000021B000F059FF18B1009800F055FF58B9029A7F
S315000021C02B4629462046FFF7E7FD013EBFF434AF14
S315000021D025B0BDE8F08F029BAC4603F1200E1868CF
S315000021E05968624603C2083373459446F7D1BC4624
S315000021F003F1200E18685968624603C20833734516
S315000022009446F7D10DF1100EBEE80F0005F1400C13
S31500002210ACE80F009EE80F008CE80F00D5E700BF82
S315000022208AD11C81821CC00C0C0C0100C00C0C83D2
S31500002230D91C83D88AD11C83DA0C81148CE11CD07A
S315000022401484E31482D11C01D81483D11CC00C0160
S315000022502DE9F04FBBB00F460446002115460AA8EB
S315000022606022449E9A4601F077F96022002122A856
S3150000227001F072F9002F00F01981BAF1000F00F099
S315000022801581002E00F01281002D40F30F810023EE
S31500002290236023636363636843F0100363600C2168
S315000022A0204601F00BF86368DFF820E223F4406370
S315000022B043F400636360636823F4407343F400737C
S315000022C06360BEE80F000DF1A80CACE80F009EE8B5
S315000022D00F008CE80F0000F00FFF04F584798346A9
S315000022E03146484604F5867800F073FF2AA9404631
S315000022F000F06FFF584600F003FF6E4A2265012387
S3150000230063656369DA0104D440F202603BB0BDE85C
S31500002310F08F311F082351F8040F002800F0BE800B
S3150000232000F0EAFE06F1200B01905946484600F0FF
S3150000233050FF2AA9404600F04CFF019800F0E0FE4D
S3150000234001235C4A226563656369DB01DCD506F11E
S315000023501C02082352F8041F002900F0A380202243
S31500002360002132A801F0F8F8202DA8BF2025013D54
S31500002370013F25F0030303F594736B4405F0030155
S3150000238017F8012FC9008A4053F8601C013D42EA44
S31500002390010243F8602CECD200F0AEFE32A90546ED
S315000023A0484600F016FF284600F0AAFE424B236579
S315000023B000F0A2FE04F58077054632A9384600F003
S315000023C010FF284600F09CFE2AAA02AB594620467A
S315000023D0FFF79AFC00F090FE04F5887B054602A9FB
S315000023E004F5827000F0F5FE32A9584600F0F1FEC1
S315000023F03146404600F0EDFE284600F081FE2F4BA8
S31500002400236503F1FA43A3F50063636500F074FEE8
S3150000241032A90546584600F0E4FE02A9384600F007
S31500002420E0FE284600F06CFE25490AAB32AA20469B
S31500002430FFF7C4FD22AB02AA51462046FFF7BEFDB8
S315000024400AAA11462046FFF763FD22AB19460AAADF
S315000024502046FFF7A1FC22AA11462046FFF758FDA9
S3150000246000F04AFE0C210546204600F027FF22A96F
S31500002470484600F0AEFE3146404600F0AAFE284629
S3150000248000F03EFE0F4B23650F4B6365636913F047
S31500002490807F40F2046018BF002037E7013B7FF4DD
S315000024A03AAF31E7013B7FF455AF2DE740F20160CB
S315000024B02CE700BF3035DA1030D00C0130E11C8437
S315000024C0143800003035DA1439380100F4370000CA
S315000024D02DE9F34714460D46DDE90A921F4600280A
S315000024E04DD14CB313683F2B2AD8516851B32549B7
S315000024F0002F14BFB846884603F03F061B19136029
S3150000250022BF536801335360FEB93F2C0ED9A3098D
S3150000251000932A463B464146002000F083F824F00B
S315000025203F031D4404F03F0434B1002622462946E9
S3150000253009EB060000F0F2FF002002B0BDE8F087CC
S31500002540B846D9E7DFF83C80D6E7C6F1400A5445DD
S31500002550ECD32946524609EB060000F0DFFF26447D
S31500002560012300934A463B4641460020A6F140041B
S3150000257000F058F83F2C5544D6D9B846C7E702486C
S31500002580DBE700BF9438000080AFFFFF2DE9F04184
S31500002590146886B01E46E3008DF80F3063098DF887
S315000025A00E30630B8DF80D30630D8DF80C305368CB
S315000025B01746DA0002EB54728DF80B2004F03F0444
S315000025C05A09372C8DF80A204FEA53324FEA5353F3
S315000025D005468DF80920CDE9001794BFC4F13802ED
S315000025E0C4F1780288468DF808300D49034600206C
S315000025F0FFF76EFF08222B46CDE900870DEB02019F
S315000026000020FFF765FF284605F1200350F8042B4C
S3150000261046F8042B9842F9D1002006B0BDE8F081B7
S31500002620543800002DE9F04F99B005468846924689
S315000026301E4600F041FA0446002D7ED104230360B5
S315000026404560C5644368694623F440634360A8F166
S315000026500402056308F11C034563884652F8040F1B
S3150000266000BA9A4241F8040BF8D100F045FD414604
S31500002670054604F5827000F0ACFD284600F040FDEA
S315000026802F4B23654FF000090AF00307229B99455B
S3150000269027D1B30704F5807744D000F02DFD4146DD
S315000026A00546384600F09DFD284600F029FD08AD98
S315000026B03246434603CBAB4210605160984602F166
S315000026C00802F6D1204600F001FA331F1C3653F8F3
S315000026D0042F12BAB3421A60F9D1002019B0BDE82E
S315000026E0F08F0AEB89156FB10DF1200E05F1400B45
S315000026F028686968F446ACE8030008355D45E64697
S31500002700F6D108AD00F0F8FC2946834604F5D270F0
S3150000271000F06FFD584600F0F3FC0A4A226509F105
S315000027200109B3E700F0E8FC31460546384600F0FB
S3150000273058FD284600F0E4FCC4E76FF07100CDE7D1
S31500002740888AC801070D8101064B0748DA1C121A50
S31500002750C11E22F00302994288BF0022034900F0FD
S31500002760DDBE00BF6810002008100020C038000041
S31500002770064B0748DA1C121AC11E22F003029942C0
S3150000278088BF0022002100F0E7BE00BF38130020FA
S31500002790681000200D4B0E4A9A60D3F8882042F448
S315000027A07002C3F888200B4B5A6D42F400525A65EA
S315000027B01A6C22F003021A645A6F22F001025A6759
S315000027C01A6E22F080521A66704700BF00ED00E0D4
S315000027D00008000000300E40044BD3F84421D20715
S315000027E003D4D3F840211042FBD1704700400E407D
S315000027F038B5C0F30323013B092B11D8DFE803F0FA
S31500002800052710102B221D101511154DC0F3043489
S3150000281005F1424505F5801504EBC5008000016011
S3150000282038BD104DC0F30434F2E70F4DC0F3043445
S315000028304FF48030FFF7D0FFEAE7C0F304340B4DC6
S315000028401020F7E7C0F30434094D0120F2E7094DE3
S31500002850C0F30434DCE7084DC0F30434D8E700BF06
S3150000286000400E4050410E40F0400E40E8400E4001
S31500002870E0400E40C0400E40B0400E4000EB40002D
S31500002880F8B50D461F46040116463AB11548012310
S315000028908B402044C7B100F1C0600360072D4FF0A4
S315000028A00F0114D8AB00104806FA03F299402044F1
S315000028B000F01AFD3EB90B4A0123AB40224477B122
S315000028C002F1C0621360F8BD00F18060E5E7A5F192
S315000028D008039B00054806FA03F29940E7E702F170
S315000028E08062EFE70CA0004004A0004008A0004072
S315000028F0214B41F671311A6C1964996841F0010156
S31500002900996001211861D960D969490792B209D540
S31500002910996821F0010199600AB100221A644FF00A
S31500002920FF3070470221D9601449D869C00700D525
S3150000293069B9D86910F002000BD0996821F001013D
S3150000294099600AB100221A646FF0010070470139DC
S31500002950EBE741B9986820F00100986002B119646C
S315000029606FF002007047996821F0010199600AB979
S31500002970002070471864FBE700000E408096980020
S315000029802DE9F04F02F16044B4F5F84F03D94FF04A
S31500002990FF30BDE8F08FDFF8C8C0DFF8C890DFF879
S315000029A0C880302606FB00C64FF44014C6F88040A7
S315000029B00024C6F88440C6F88840C6F89840264CDD
S315000029C041F67135D4F840A02564A5684FF0010E94
S315000029D045F00105A5600EFA00F053B90422E26045
S315000029E0A26822F00102A2601FFA8AF28ABB0020C6
S315000029F0CFE701F50065216105EA0905C4F80CE099
S31500002A006D1AD4F81CB09D4228BF1D461BF0040F5A
S31500002A104FEA9507BBD1013F3F0147F06057C6F823
S31500002A208C700E4FC6F89020C6F89470DCF82070B3
S31500002A300743CCF820701027E760DCF8287038428E
S31500002A40FBD0C8F828002944C8F820002A445B1B9C
S31500002A50C3E72364CBE700BF00000E4018000E401A
S31500002A6000200E4000F8FFFF00200E440D4AD2F869
S31500002A70E430D2F8E0109B0003F03C03C1F381116F
S31500002A800B438370D2F8E03003F03F034370D2F873
S31500002A90E830D2F8EC2003F0F003C2F3031213433C
S31500002AA00370704700FF0FE0024BD3F8FC00000EE6
S31500002AB0704700BF0081E00F024B03480122C3F8B4
S31500002AC0042670470010C84300000F40054B98428B
S31500002AD001BF03F16E7303F588330022C3F80426A1
S31500002AE0704700BF00000F4000F012B8FDF7A2BF0C
S31500002AF0704710B50446FEF797FC182C07D1204600
S31500002B00FEF792FC2046BDE81040FEF78DBC10BDD6
S31500002B10FEF7B6BBC0F30A032DE9F04105460F46A2
S31500002B2016460BB900F0D0F805F5006424F4FF64EE
S31500002B3024F0070405EB0608A04507D832463946B7
S31500002B4028460223BDE8F04100F0C5B8204600F053
S31500002B50BBF804F50064EFE770B400250346D5F82A
S31500002B6028582E69864206D86C6913449C4202D3C3
S31500002B7070BCFFF7CFBF70BC7047036913F0FE0F40
S31500002B800CBF0120002070470023D3F8283898682E
S31500002B9070474FF400407047002070470020704790
S31500002BA003461846016881F3088881F3098840685E
S31500002BB08746FEE74FF40170FEF7C2BAB1F5BE7F55
S31500002BC010B504460FD34FF4BE72002100F0C4FCCA
S31500002BD004F5827204F1BC0104F128000023BDE86B
S31500002BE0104000F0B8B940F2052010BD13B50446F8
S31500002BF0009101462830FEF755FDC4F8780118B15A
S31500002C0041F20703984204D1A37823B1E07800F299
S31500002C10022002B010BD40F20120FAE72DE9F04390
S31500002C2087B00DF108090446DDF838800E461746D0
S31500002C300021102248461D4600F08EFC0021C8F8EF
S31500002C4000101C22284600F087FC32463B46CDF891
S31500002C500090214604F12800FEF724FD23789A0708
S31500002C6044BF6268C8F80020DB0709D504F10803F1
S31500002C7004F1240253F8041B45F8041B9342F9D1CE
S31500002C802378002B40F2064018BF002007B0BDE8AD
S31500002C90F0834FF4BE70704713B504460B461046DA
S31500002CA0A20753BF6FEA03434FF6FF7242EA03439C
S31500002CB06FEA13430193042324F003010DEB03028F
S31500002CC0FFF75EFE02B010BD08B5FFF711FEB0FAC1
S31500002CD080F0400908BD072B2DE9F04105460E4658
S31500002CE014461F4602D90020BDE8F08101214FF4A9
S31500002CF08A40FFF77DFD0CB90120F5E744EA05039C
S31500002D00DA07F0D4AB0726D531883A462846FFF7CE
S31500002D10C3FF0028E7D1023C032C05F1020506F1AA
S31500002D2002060DD924F003084346324629463846A2
S31500002D30FFF726FE0028D6D146444544A4EB0804F6
S31500002D40002CD9D031883A462846FFF7A5FFB0FABD
S31500002D5080F04009C8E7032CE4D8F3E707B5012360
S31500002D60009100221946FEF797FB03B05DF804FBBD
S31500002D7070B5D1E90152AA4205D290F840302B44F1
S31500002D809B1A402B10D9002012E00A6890F84040A8
S31500002D90D65C90F84120224402F03F020133013410
S31500002DA086548B6080F840408B689D42EDD80120A8
S31500002DB070BD2DE9F84317469E46D1E9012390F8E8
S31500002DC040C0089D9DF824909DF82880D21A624440
S31500002DD0954204460E460AD9FFF7CAFF002867D176
S31500002DE0102384F8463041F20200BDE8F8837545A9
S31500002DF055D8002394F840200AB19D4235D1D6E932
S31500002E000121914201D29D4241D89D424DD1D4F833
S31500002E10882029463846FEF711FFC4F88800B9F124
S31500002E20000F04D0E06C2A46394600F017F994F8F2
S31500002E304330B8F1000F06D08BB1A06C2B463A4652
S31500002E40394600F0F0F894F8433043B1E36DA26DD3
S31500002E502B449342E36524BF002384F84330636D1B
S31500002E602B44636541F20300BFE794F84120A25C5E
S31500002E70FA5494F84120013202F03F0284F84120CE
S31500002E8094F84020013A84F840200133B2E73268D2
S31500002E90525CFA54B2680132B2600133AFE741F2D4
S31500002EA00100102384F846309FE741F20200F8E75C
S31500002EB000209AE72DE9F04799465B6804460F46DD
S31500002EC09046002B41D011F0030341D1D3F82838A6
S31500002ED0006E1B6981181D1DA9421BD31C33984225
S31500002EE018D2A842024638BF2A46101A3E18C5F123
S31500002EF06800994294BFC2EB010AC2EB030A104470
S31500002F0031465246204400F009FB5246FF21304626
S31500002F1000F022FB226E48F204039A420CD802EB20
S31500002F20080048F20701884206D99B1AFA58C4F8E5
S31500002F3080204FF0FF32FA50D9E90035206E424624
S31500002F403946A847236E434423660020BDE8F08730
S31500002F5041F20200FAE72DE9F04103F020030025D3
S31500002F6004464FF0FF38C0E918550F461646A0F83C
S31500002F70405080F84350A0F8445080F8465080F8FE
S31500002F804230C0F888801822FF21683000F0E4FA49
S31500002F90C4E91276C4F88080C4F8848084F890501E
S31500002FA016B1304600F050F80020BDE8F08149BA6D
S31500002FB089B24840C0F30312424013B283EA023397
S31500002FC0580100F4FF509BB25840704738B504468C
S31500002FD045181046AC4200D138BD014614F8010B25
S31500002FE0FFF7E5FFF6E7F8B5044616461D460F4619
S31500002FF000F0BAF9DDE90612204600F0B9F900231F
S31500003000636284F838703368C4F839307368C4F87A
S315000030103D30B368C4F841302B0C6DBA84F84530A6
S31500003020A4F84650F8BD30B585B00D46194600F1F6
S315000030302803CDE90152009300F1240200F1380380
S3150000304000F0B4F905B030BD10B5044600F02BF819
S3150000305020460021BDE8104000F029B800F02CB849
S31500003060014600F036B8036853B91C2350F8042F04
S315000030700AB9043BFAD1002BCCBF002001207047CF
S315000030800020704738B5202204460D46002100F086
S3150000309063FA05F12003601E13F8012D00F8012FD5
S315000030A0AB42F9D138BD6822002100F055BA03467B
S315000030B00020C3E90000704707B500F1280301901E
S315000030C0009300F108030020FFF702FA03B05DF851
S315000030D004FB02460B4600F128010830FFF756BAFA
S315000030E0FEE708B5FFF756FBFDF7C0FFFFF72CFB21
S315000030F0FFF73EFBFDF74CFFEFF3108072B670470B
S3150000310000B962B6704784B00B6800934B680193B0
S315000031108B680293CB680393009B0360019B03605B
S31500003120029B0360039B03600023009301930293B9
S31500003130039304B0704730B5D1E90223D1E90054B6
S31500003140056004600260036030BD30B50568046840
S3150000315002680368C1E90054C1E9022330BD7FB5A6
S315000031608A0704460B4610D06D4601F11006186812
S3150000317059682A4603C20833B3421546F7D1694651
S315000031802046FFF7D8FF04B070BD0091009904B047
S31500003190BDE87040FFF7CFBF30B58B0785B00C4652
S315000031A010D06946FFF7D1FF0D46234604AC2A46E8
S315000031B003CAA24218605960154603F10803F6D106
S315000031C005B030BD0091009905B0BDE83040FFF76D
S315000031D0BCBF10B5FFF7AFFFBDE810401031FFF7D9
S315000031E0AABF10B5FFF7B1FFBDE810401031FFF7D9
S315000031F0ACBF10B5FFF79FFF0C461031FFF79BFFE2
S3150000320004F12001FFF797FF04F13001BDE81040FB
S31500003210FFF791BF00F1424303F58013102A10B562
S315000032204FEA43130AD101221A6000F58870FFF7AE
S315000032306AFF1031BDE81040FFF765BF00221A6033
S315000032402430F7E7F0B50B46990789B004461546D2
S315000032502DD0082A19D16D4603F110061868596851
S315000032602A4603C20833B3421546F7D108226946F7
S315000032702046FFF7CFFF03226B460020013A186075
S3150000328003F10403FAD209B0F0BD6E4603F120073C
S3150000329018685968324603C20833BB421646F7D14E
S315000032A02A4669462046FFF7B5FF0722E4E7009362
S315000032B0009909B0BDE8F040FFF7ACBF436823F0C2
S315000032C01F030E290BD8DFE801F008080808080BD1
S315000032D00B0B080808080B0B0B00194341607047DD
S315000032E0194341F01001F9E770B505460E4614463C
S315000032F0FFF702FF2B685C4034405C402C60BDE861
S315000033007040FFF7FDBE0A7810B50AB90223436084
S3150000331000234362CB788C781B0443EA04634C7A1F
S315000033202343CC7943EA84230C7A43EA04234C787A
S3150000333043EA84138C7A43EAC413CC7A43EA4413EF
S315000033400C7B43EA04134C7B43EAC4030C7943EA3F
S3150000335044334C79897943EA047343EA4173036041
S315000033600AB10123436010BD2422002100F0F4B805
S3150000337070B515460E4624220021044600F0ECF8EE
S31500003380C02D0DD0B5F5807F01D0802D0BD1204604
S31500003390EA0840F8045B314600F0C0F8002070BD32
S315000033A06FF07100FBE76FF01F00F8E72DE9F04FB3
S315000033B087B08B460290039390467AB11568029BBC
S315000033C01B68802B0CD100265E450FD3B8F1000F89
S315000033D040F0A180002007B0BDE8F08F1546EEE76B
S315000033E0B3F5807FEFD06FF02000F4E75DB1119B5D
S315000033F0109A9B5D525D5340129A0135935505F024
S315000034000F050136E0E7FFF757FB4FF440434560F1
S3150000341003600446FFF770FE029951F8043B802BC7
S31500003420074614BF102208222046FFF70BFF04F1BF
S315000034308403184603990193FFF791FE3846FFF778
S315000034405FFE119BABEB060703EB0609129B27F009
S315000034500F0703EB060A09EB070305930599894550
S315000034604FF005034FF0030219D1119B3744DE19C3
S31500003470129B1F44119B03EB0B0A032356452AD1CB
S31500003480FFF73AFE039906460198FFF785FE304698
S31500003490FFF736FE2046FFF719FB5E4694E7482104
S315000034A0A160A36021698907FCD4A260FFF724FE0E
S315000034B04946049004F1A000FFF751FE514604F17D
S315000034C08000FFF769FE0498FFF71AFE09F110095C
S315000034D00AF1100AC2E79DB94822A2600522A2603D
S315000034E022699207FCD4A360FFF706FE1099814675
S315000034F004F18000FFF750FE4846FFF701FE032364
S31500003500109916F8012B495D01354A4007F8012B41
S3150000351005F00F05B2E7C8F800505BE70A44914290
S3150000352000F1FF3300D1704710B511F8014B03F8D5
S31500003530014F9142F9D110BD10B5013902449042B4
S3150000354001D1002005E0037811F8014FA34201D014
S31500003550181B10BD0130F2E702440346934200D126
S31500003560704703F8011BF9E70000000000000000A7
S315000035700000000000000000000000000000000045
S31500003580F8B500BFF8BC08BC9E467047F8B500BF4A
S31500003590F8BC08BC9E467047000000000000000012
S315000035A00000000000000000000000000000000015
S315000035B00000000000000000000000000000000005
S315000035C000000000592B000000000000F10D000073
S315000035D00D0A4765636B6F20426F6F746C6F616491
S315000035E065722076582E59592E5A5A0D0A312E20B8
S315000035F075706C6F61642067626C0D0A322E2072E2
S31500003600756E0D0A332E2065626C20696E666F0D2D
S315000036100A424C203E20000D0A4661696C65642012
S31500003620746F20626F6F740D0A000D0A66696C650F
S31500003630206572726F72203078000D0A626C6F63BB
S315000036406B206572726F72203078000D0A536572B6
S3150000365069616C2075706C6F61642061626F727451
S3150000366065640D0A000D0A53657269616C207570F8
S315000036706C6F616420636F6D706C6574650D0A0014
S315000036800D0A626567696E2075706C6F61640D0A5C
S3150000369000B814B6F1E0CFF3ADB7DD25C9FA79B7B6
S315000036A01300000013B779FAC925DDB7ADF3CFE0F3
S315000036B0F1B614B801020000020000002039000033
S315000036C040000000020004020000000000000000AC
S315000036D000000000000000000000000000000000E4
S315000036E000000000000000000000000000000000D4
S315000036F00000000007B0CD5E0200000002000402D8
S31500003700243100000040000000000400F00010001A
S31500003710992B00009D2B0000950E0000BD2B00008C
S31500003720ED2B0000000000001D2C0000932C000073
S315000037300000000000000000932B000004000007BA
S3150000374000000D1013001A202630384048000000F3
S31500003750EB17A6030201000003000000FA0606FAB2
S315000037600D04000003000000F40A0AF40505000039
S3150000377001000000F50909F503070000010000003B
S31500003780F60808F60608000000000000FE0101FE2B
S315000037900808000000000000FD0303FD0A08000001
S315000037A000000000F90707F90E09000002000000FA
S315000037B0F70A0AF70F0B000003000000FC0404FCE4
S315000037C00B0C0000030000002000000000010000B8
S315000037D0050C0000FFFFFFFFFFFFFFFFFFFFFFFFDE
S315000037E000000000000000000000000001000000D2
S315000037F0FFFFFFFF512563FCC2CAB9F3849E17A7DA
S31500003800ADFAE6BCFFFFFFFFFFFFFFFF0000000071
S31500003810FFFFFFFF96C298D84539A1F4A033EB2DE0
S31500003820817D0377F240A463E5E6BCF847422CE1CC
S31500003830F2D1176BF551BF376840B6CBCE5E316B10
S315000038405733CE2B169E0F7C4AEBE78E9B7F1AFED4
S31500003850E242E34F8000000000000000000000008C
S315000038600000000000000000000000000000000052
S315000038700000000000000000000000000000000042
S315000038800000000000000000000000000000000032
S31500003890000000006A09E667BB67AE853C6EF372FE
S315000038A0A54FF53A510E527F9B05688C1F83D9AB05
S315000038B05BE0CD19C0380000081000201800000099
S315000038C0F00F100300000000361100201300000066
S315000038D009000000000100000202000013000000C1
S315000038E0F00F100300000000361200201300000045
S315000038F0090000000002000001010000D3FFFFFFE5
S31500003900F07F1030B610002000000000000000001C
S3150000391000000140002204003109000009090000EE
S30900003920075A86E8CE
S5030313E6
S70500000000FA
