S01C00006275696C642F64656275672F7A332D726F757465722E733337E8
S21400400000100020C54400001D7A0000217A000040
S2140040100B7A0200257A00002D7A00000B7A020047
S2140040200B7A02000B7A02000B7A02000B7A02006F
S214004030317A000020F202000B7A02000B7A0200AE
S214004040B37A0200BBBE02000B7A0200E512010042
S214004050CBBE0200C7BE02009D190100BFBE020013
S2140040603D4A00000B7A02000B7A0200B1C1000044
S2140040707BAA02000B7A02000B7A02000B7A02007F
S2140040800B7A02000B7A02000B7A02000B7A02000F
S2140040900B7A02000B7A02000B7A02000B7A0200FF
S2140040A00B7A02000B7A02000B7A0200D11901008B
S2140040B0C3BE0200D58800000D1A01000B7A02006C
S2140040C07D3B01000B7A02000000000000000000AB
S2140040D0013800D0FCE77047000000000000000038
S2140040E001F0FF01102A2BDB10F0070F08D010F8A4
S2140040F0013B013A8B422DD010F0070F42B3F6D1A8
S214004100F0B441EA012141EA014122F007047FF0C0
S21400411000070023F0E80256083C85EA010586EA17
S214004120010685FA47F5A3FA87F586FA47F6A5FA53
S21400413087F68EB9EED1F0BC01F0FF0102F007025F
S21400414032B110F8013B013A83EA010313B1F8D10A
S2140041500020704701387047002D06BF35460338EB
S214004160073815F0010F07D1013015F4807F02BF24
S214004170013015F4C03F0130F0BC0138704700BF75
S21400418070B58EB02C22002103A826F0DBFD642338
S2140041904FF00232CDE9052308930B238DF8343017
S2140041A0514B1B880121D8078DF8101000F196801E
S2140041B008460FF089FE4D4B4D494E484E4C0A229C
S2140041C01A704FF42873ADF812300EF0D5FF206049
S2140041D020B94A4840F25B2103F01EFB2068052107
S2140041E028F07DF820B1454840F26B2103F014FB1F
S2140041F0206807F0E9FF424B2068196827F0F8FCB2
S21400420010F044FD0C256843099010F03FFD68430C
S21400421007900DEB050120680AF00AFD20B137482B
S2140042204FF4207103F0F8FA36492068002227F090
S21400423067FD20B1314840F2822103F0EDFA324E9C
S214004240324D96F9000040F203532B807F284FF042
S2140042500503AB7001D10FF095FF3378EB7010F0CB
S21400426015FD00EB80008000A88010F00FFD0023F5
S214004270C000E880AB604FF0FF3019A3D3E90023FD
S2140042804FF0FF310FF0DCFF2149206828F029F9B4
S214004290206802A927F011FD20B1184840F2BB2182
S2140042A003F0BAFA042220680DEB020127F08EFC18
S2140042B0042804D0114840F2BE2103F0ADFA01A94B
S2140042C0012028F042FA03F0EDFB012010F07CFFFD
S2140042D023F07FFD10F0A2FF0FF07AFE0EB070BD47
S2140042E00A0020FF42030000823D0020DB41002040
S2140042F0F13E0100DC110020403500203E13030093
S214004300D4100020E9410020BC14002034350020E1
S214004310914001000348044B834202D0034B03B193
S21400432018477047F4140020F41400200000000022
S2140043300548064B1B1AD90F01EBA301491002D002
S214004340034B03B118477047F4140020F414002000
S2140043500000000010B5064C237843B9FFF7DAFFDB
S214004360044B13B10448AFF300800123237010BD43
S214004370063E0020000000002C16030008B5054B82
S2140043801BB105490548AFF30080BDE80840FFF7BC
S214004390CFBF00BF00000000901800202C160300BE
S2140043A0A3F5803A704700BF174B002B08BF134B8E
S2140043B09D46FFF7F5FF00218B460F461348144A2B
S2140043C0121A26F0BFFC0E4B002B00D098470D4B60
S2140043D0002B00D098470020002104000D000D4857
S2140043E0002802D00C48AFF3008008F08FF82000B9
S2140043F0290007F0F3FE08F077F800BF0000080079
S214004400000000000000000000100020F41400204F
S214004410444200200000000000000000002310B509
S214004420D3F82838A3F50062B2F5605F11D2196898
S214004430094A91420DD1094C227812F0FD0F01D0A5
S214004440002010BDDB6998470028FAD101232370AD
S214004450F6E74FF48170F4E707B0CD5E073E002024
S2140044604FF000530B4A1A600B4A012393601368FF
S21400447023F4E06343F480631360BFF34F8F074970
S214004480074BCA6802F4E0621343CB60BFF34F8F5A
S21400449000BFFDE702020FF000500E4000ED00E006
S2140044A00400FA05054A06490346106803448B4291
S2140044B094BF13604FF0FF30704700BF9810002085
S2140044C0007C002008B500F07DF8124B12498B42A4
S2140044D012D3124B124900208B4218D3FFF764FF09
S2140044E0186850F82240586840F822400132986810
S2140044F08242F5D30C33EAE70022F8E71C6844F85A
S214004500220001325C68A242F8D30833E4E70022B6
S214004510F8E700BF341603004016030040160300F9
S214004520401603000048704700F049020D4AD2F8D2
S214004530943003F00703032B11D0042B03D0022B77
S2140045400BD1094B00E0094B1868D2F80031C3F3D1
S21400455004230133B0FBF3F07047054BF4E74FF448
S2140045600040F2E700400E40A8100020A4100020F3
S2140045709C10002008B5FFF7D9FF054BD3F808318B
S214004580C3F308230133B0FBF3F0024B186008BDF9
S21400459000400E40A0100020014B1868704700BF76
S2140045A0A8100020054B1860054BD3F8943003F094
S2140045B00703022B01D1FFF7DDBF7047A8100020CC
S2140045C000400E400D4B0E4A9A60D3F8882042F405
S2140045D07002C3F888200B4B5A6D42F400525A659D
S2140045E01A6C22F003021A645A6F22F001025A670C
S2140045F01A6E22F080521A66704700BF00ED00E087
S2140046000040000000300E40014B1868704700BFA5
S214004610A41000202DE9F04F9A46554B85B01B7824
S214004620DDF83C909DF844B0DDF8508006460F4615
S2140046301546002B00F09680072A00F295800E9B08
S214004640002B00F09180B9F1000F00F08D80129BD6
S214004650B3F5006F00F38880012803D1109B002B70
S21400466000F08280434B03EB05131B7B002B7DD0B1
S214004670414C10220021684626F064FB04EB4514EA
S21400468010229FBB3946204626F05CFB43F21003FF
S2140046906380BBF1000F03D1E37843F00303E370BC
S2140046A0354A0E9BCDF800A002EB451CCCE90193E1
S2140046B0129B581E9DF84C30690103F00303C0F3AB
S2140046C00A009B0643EA001E53582C4818404EEA40
S2140046D00003012E535017D0B8F1000F2ED19CF8CE
S2140046E0023068F304138CF8023027E000212046DD
S2140046F026F028FB4FF444736380BBF1000FCFD144
S214004700E37843F03003CAE71323CCF80C309CE878
S2140047100F000CF1100E8EE80F00DCF81C20109B2A
S214004720CCF814306FF0030161F39F02012FCCF830
S2140047301C2003D1CCF81890CCF804300D4A29017F
S21400474002EB051342F80180159A5A6000272846A6
S214004750224669469F605E7301F0A4FB384605B0AA
S214004760BDE8F08F0648FAE70648F8E70648F6E799
S214004770083E0020A8190020A81800200F80FFF38C
S214004780028000F0018000F0078000F038B5124B80
S2140047901B780546DBB1E0B123F09DF90F4A0023F4
S2140047A01146147B54B92B601A0101EB0313012543
S2140047B08C501D7323F095F9204638BD0133082B25
S2140047C002F11002EDD123F08CF90548F5E7054813
S2140047D0F3E70548F1E700BF083E0020A8190020CF
S2140047E0048000F0028000F0018000F038B523F06D
S2140047F072F90C4A05460023147B6CB90133082B6A
S21400480002F11002F8D101F003FB074B28461C709A
S21400481023F067F9204603E0284623F062F90348B0
S21400482038BD00BFA8190020083E0020058000F013
S2140048300D4B1B7810B5044693B1072812D823F009
S2140048404AF90A4B03EB04131A7B2AB100241C73A3
S21400485023F047F9204610BD23F043F90448FAE751
S2140048600448F8E70448F6E7083E0020A8190020A8
S214004870068000F0028000F0018000F013B5164BB1
S2140048801868019000238DF8043023F024F9134BA8
S2140048901C7824B123F025F9114802B010BD01227E
S2140048A01A7023F01EF90F4B1C731C7783F82C40EC
S2140048B083F83C4083F84C4083F85C4083F86C40B7
S2140048C083F87C4004230DEB03008DF8073001F0DD
S2140048D0BFFA2046E1E700BF70F20200083E002063
S2140048E0038000F0A81900200A4A127808B55AB1C9
S2140048F007280BD8084A02EB00131B7B43B10021A4
S21400490001F09CFA002008BD0448FCE70448FAE7DA
S2140049100448F8E7083E0020A8190020028000F0AE
S214004920018000F0078000F00A4A127808B55AB1F4
S21400493007280BD8084A02EB00131B7B43B1012162
S21400494001F07CFA002008BD0448FCE70448FAE7BA
S2140049500448F8E7083E0020A8190020028000F06E
S214004960018000F0078000F00A4A127808B552B1BC
S21400497007280AD8084A02EB00131B7B3BB101F05C
S214004980E1FA002008BD0548FCE70548FAE70548B7
S214004990F8E700BF083E0020A8190020028000F0BB
S2140049A0018000F0078000F00D4B1B7893B10728BC
S2140049B012D889B10B4B03EB00131B7B73B10A4B68
S2140049C01A6E01238340134214BF012300230B7089
S2140049D000207047054870470548704705487047EF
S2140049E0083E0020A819002000200E40028000F09B
S2140049F0018000F0078000F00B4A127810B50C46D4
S214004A0062B107280CD859B1084A02EB00131B7B89
S214004A1043B101F0ADFA2070002010BD0448FCE759
S214004A200448FAE70448F8E7083E0020A8190020E2
S214004A30028000F0018000F0078000F02DE9F041D0
S214004A40DFF86480D8F86070D8F86C301F4000D566
S214004A50FEE7134C01260025374218D02368C8F815
S214004A606860A3B1A16862680131A16028469847D2
S214004A70637B012B0BD150B90A4B03EB45131A7B12
S214004A8060F341021A731A7F60F341021A77013508
S214004A90082D4FEA460604F11004DDD1BDE8F0818A
S214004AA0A8190020A818002000200E40024B196804
S214004AB0024B186809F058BCAC100020CC1000203F
S214004AC070B59400224605460E4623F034F9431C82
S214004AD00AD058B922463146284626F009F9002859
S214004AE0034808BF002070BD0248FCE70248FAE70A
S214004AF010E000F021E000F024E000F010B50446DD
S214004B0001F0EAFA431C10D088B901F0D3FB20F07C
S214004B10030023462044984201D1002010BD53F8DC
S214004B20042B0132F7D00348F8E70348F6E70348BA
S214004B30F4E700BF0EE000F021E000F024E000F013
S214004B4008B522F0BDFF014B186008BD18210020F3
S214004B50014B186822F0B8BF18210020044A00EB69
S214004B6080031068A0EBE30080F3080080B2704773
S214004B704C21002038B51B4B40289D681EDD4F2871
S214004B80CCBF02230123184A184C02EBC30292E85A
S214004B900300174A02EBC30284E8030092E803000E
S214004BA0144C012D84E803000AD0012B16D0022BEA
S214004BB014D00020BDE8384001F07AB80023E2E7C0
S214004BC0084C4AF6E852012BA26009D0022B07D007
S214004BD0002001F06DF80023A36038BD1846E9E711
S214004BE01846F6E700300E401C21002090210020D9
S214004BF03421002060210020044B4FF04042DA624E
S214004C001A6B22F040421A63704700BF00300E4015
S214004C10F0B52D4C2D4A236800210846156845B18D
S214004C201D68002D42D09D889688AE4284BF1346EC
S214004C3001210130062802F10802EFD101B12360FC
S214004C402348244A036800210D46166846B11E68AC
S214004C50002E2ED09E889788B7423CBF134601216F
S214004C600135062D02F10802EFD101B1036022687A
S214004C70194B116801B3D969127921F0FF010A4373
S214004C80DA611A6B42F080421A630368124A1968A6
S214004C90B1B19B88D1691B029BB221F47F410B43C3
S214004CA0D361136B43F000431363F0BD1346012139
S214004CB0BFE713460121D3E71A6B22F08042E3E7F1
S214004CC0136B23F00043EFE75421002090210020CF
S214004CD0502100206021002000300E4008B501F071
S214004CE02BF89FED127A07EE900AF4EEC77AF1EEF3
S214004CF010FA18D49FED0E7AF4EE477AF1EE10FA19
S214004D00C8BFF0EE477AB6EE007A77EE877A9FED68
S214004D10097A77EE877AFDEEE77A17EE903AA3F1F6
S214004D20800040B208BDF0EE477AECE7000000C312
S214004D300000FE420000004370B5144C236B626A0C
S214004D40134011D5124B1B681E6836B100251D6036
S214004D505D60FFF7C3FF2946B0474FF00043E362AC
S214004D60BDE87040FFF754BF5B00F9D5094B1B68E0
S214004D701C6834B100221A605A60FFF7AFFF0121A9
S214004D80A047024B4FF08042DA62E9E700300E405F
S214004D9050210020542100202A4B012273B51A709E
S214004DA000213022284825F0CDFF30222748002158
S214004DB025F0C8FF264A274B1360274A1360274A68
S214004DC0D2F8B030D2F80421C3F30743FF2B02D049
S214004DD0D2B2FF2A01D19022192303EB830302EB00
S214004DE0D3021F4B01A81A6001F03EFA9DF8053069
S214004DF0012B1BD14120FFF7B1FE1A4D1A4CA8809B
S214004E0039202C60FFF7AAFE06465020FFF7A6FEC4
S214004E101649A88148208E818C60AC60FFF79EFE04
S214004E200C618882FFF75AFFFFF7A4FEFFF7E4FE47
S214004E300F4B0122C3F880211A60FFF7E9FE00201D
S214004E4002B070BD093E00209021002060210020A5
S214004E505421002058210020502100200081E00F1E
S214004E604C2100201C210020AF7A020034210020B3
S214004E7000E100E00C4B984205D90C4B984210D844
S214004E800122012301E00022134609490B64094967
S214004E90D1F8003123F0807343EA0263C1F8003191
S214004EA070470222EDE700BF0048E8010090D003FB
S214004EB00000C84300400E40044BD3F84421D207FC
S214004EC003D4D3F840211042FBD1704700400E4077
S214004ED00A4B0B4998424A680BD90A4B98420AD9A2
S214004EE002F040724B6823F0407343EA02634B6063
S214004EF070470022F6E70122F4E700BF40787D0104
S214004F0000000E40005A620238B5074C41F6713375
S214004F10256C2364FFF706FBADB2FFF7D9FF0DB192
S214004F200023236438BD00BF00000E4038B5064C91
S214004F30256C41F671332364ADB2FFF7C9FF0DB19E
S214004F400023236438BD00BF00000E4038B5C0F310
S214004F500323013B092B11D8DFE803F005271010C7
S214004F602B221D101511154DC0F3043405F14245D2
S214004F7005F5801504EBC5008000016038BD104DB6
S214004F80C0F30434F2E70F4DC0F304344FF480301E
S214004F90FFF792FFEAE7C0F304340B4D1020F7E763
S214004FA0C0F30434094D0120F2E7094DC0F3043480
S214004FB0DCE7084DC0F30434D8E700BF00400E40DD
S214004FC050410E40F0400E40E8400E40E0400E409B
S214004FD0C0400E40B0400E40C0F30313013B092B07
S214004FE03FD8DFE803F0050B0F193E3E1F232C3594
S214004FF01D4BD3F80001C0F3042070471A4BD3F8BA
S2140050001401F8E7184BD3F80031C3F300630133FB
S2140050100120984001387047134BD3F80C01C0F3B9
S21400502008207047104BD3F80801F8E70F4B98425A
S21400503017D10D4BD3F8203103F00F03E8E70C4BE4
S21400504098420ED1084BD3F8283103F00303DFE76C
S214005050084B984205D1044BD3F8300100F00F00FE
S21400506070470020704700BF00400E4080061600C4
S21400507090071A00A009140000F00F000138072856
S2140050804BD8DFE800F00412214A31354A3D294B5F
S214005090D3F8940000F00700032849D004283ED037
S2140050A002280CBF042005207047224BD3F880004E
S2140050B000F0070002283BD0042834D0012808BF9F
S2140050C0032018BF012070471A4BD3F8843003F032
S2140050D00703013B032B03D8DFE803F00421232555
S2140050E00120704703207047124BD3F88800DFE793
S2140050F0104B1B6F13F0010F0CBF072009207047E1
S2140051000C4BD3F85C3103F03003202B0DD0302B42
S2140051100DD0102B08BF0720D3E7002070470220D1
S2140051207047062070470A20704704207047082002
S214005130704700BF00400E4008B50146FFF79CFFD1
S2140051401A4B994211D01A4B994212D0194B9942D8
S21400515004D1194BD3F8800000F00700013803286B
S21400516021D8DFE800F00A0E1612134BD3F884009D
S214005170F2E7114BD3F88800EEE7BDE8084022F0CE
S21400518045BCBDE80840FFF73FBABDE8084022F03E
S21400519040BCFFF7CBF9084BD3F80031C3F30063EC
S2140051A00133D84008BD0020FCE700BF0300200004
S2140051B00500240002001E0000400E4000F4781394
S2140051C0B3F5A01F10B5044654D01ED8B3F5202F53
S2140051D06CD009D8B3F5003F41D0B3F5802F33D05B
S2140051E0002B63D0002010BDB3F5602F57D0B3F569
S2140051F0801F6CD0B3F5402FF4D1FFF797F93F4BE3
S214005200D3F81431C3F3042325E0B3F5001F3BD0D5
S2140052100FD8B3F5D01F39D0B3F5F01F25D0B3F5AE
S214005220B01FDFD13648FFF787FF344BD3F8203165
S21400523026E0B3F5481F3DD0B3F5781F54D0B3F53C
S214005240101FCFD12F4811E0FFF770F92B4BD3F882
S2140052500C31C3F308230133B0FBF3F0C3E7FFF7C9
S21400526065F9264BD3F80831F3E72548BDE810402A
S214005270FFF762BF2348FFF75FFF204BD3F83031BC
S21400528003F00F03D840AEE71F48EFE71E48FFF7CE
S21400529053FF1A4BD3F8283103F00303F2E71B48F9
S2140052A0FFF7EAFE072812D009289BD1BDE8104078
S2140052B0FFF73CB91648FFF7DFFE072807D0082897
S2140052C008D004288ED1BDE81040FFF765B9114B11
S2140052D0186888E7FFF72AF9084BD3F80031C3F3BC
S2140052E0042303FB00007EE7FFF720F90146204673
S2140052F022F0E1FBB1FBF0F075E700BF00400E4086
S21400530002001E00050024000300200006000E0018
S214005310B8003200D0100020014B1880704700BF44
S2140053205814002010B5042813D8DFE800F047030F
S2140053302F132100294AC1F30801D2F86838002B40
S214005340FBD1274A136A23F4FF7323F001030B43B0
S214005350136210BD214A01F07F01D2F86038002B9D
S214005360FBD11F4A136923F07F030B431361F0E759
S2140053701A4A01F07F01D2F86438002BFBD1184A94
S214005380936923F07F030B439361E2E7144AD2F854
S2140053909030536A23F0300343F010035362146BCB
S2140053A0104BC1F3C31003300F2803EA040328BFD1
S2140053B00F200B4343EA00731363CAE74F29074ADB
S2140053C028BF4F21D2F87438002BFBD1044A936BC8
S2140053D023F07F030B439363BBE700BF0020C84363
S2140053E000400E4000F8FF0F104A536A13F0300FCB
S2140053F018D0202913D0302914D000290C4B08BF10
S2140054004FF44003D2F8901033EA0101FAD15B0260
S21400541046BFD2F8A000C0F38020012070474FF4AA
S2140054200003EFE74FF44003ECE700BF00400E40F8
S214005430FF03E10702280AD129B1064B4FF480602A
S214005440C3F8A800596612B10220FFF7CDBF0120AD
S214005450704700BF00400E400428F8B546D82F4BD2
S21400546013F800C02E4B1D5C2E4B33F810702E4BDD
S21400547033F810402D4B00293ED0022837D15C6A05
S21400548014F0300F33D15C6AE40705D55E6A26F067
S214005490300646F010065E62254C244B25441F66F7
S2140054A0AD002B68002BFCD002B36444A400236834
S2140054B0002BFCD0022819D1C1B11C4D696A11F02D
S2140054C0010116D001222021FFF7B4FFD5F89C6019
S2140054D0012200210220FFF7BFFFC6F30A010220C7
S2140054E0FFF720FF2F662368002BFCD0F8BD0021B5
S2140054F0D2E7FFF779FFE9E701211C66A940D3F858
S21400550090000842FBD1002AF0D00123074903FA95
S2140055100CF3D1F890201A42FBD1E7E7AFF2020075
S214005520AAF20200A0F2020096F2020000400E402C
S2140055308004F21008B5024698B901221146FFF71A
S2140055408BFFFFF7E1FC0D4B04225A67FEF7EEFFD8
S214005550FFF790FCFFF70EF8BDE808400021FFF7C4
S214005560E5BC012807D10146FFF776FFFFF7CCFC24
S214005570024B0322E9E7FFF7C7FCE7E700400E40CF
S21400558008B50C48FFF776FC012211460220FFF70B
S21400559063FFFFF7B9FC084B02225A67FEF7C6FF07
S2140055A0FFF768FCFEF7E6FFBDE808400021FFF7BE
S2140055B0BDBC00BF0148E80100400E4010B50446DF
S2140055C01120FFF759FD002101220220FFF744FFBA
S2140055D01B4A217C536A23F00103022908BF43F0CB
S2140055E001035362174B2178C3F8A014936AE17A3B
S2140055F023F007030B439362A188637A43EAC1232F
S214005600D362136BA07A217A03F07F630343E088AA
S21400561043EAC02343EAC11303310F2928BF0F21F1
S21400562043EA01731363A37B617B1B0143EA0133E7
S214005630E17B0B43217B43EA0143536310BD00BF6C
S21400564000400E400000C843034B5868C0F30800F3
S214005650003818BF0120704700ED00E01848194BCD
S214005660C26C1B88C2F303222833013202EB82018C
S21400567003EB5303B3FBF1F3C16C013B072B28BFCD
S214005680072321F0EE6141EA036343F48013C36409
S2140056900D4BB3F90030002B10DB2833510801EB1B
S2140056A0420203EB5303B3FBF2F3026D072B28BF52
S2140056B0072322F0700242EA03130365704700BF17
S2140056C000300E40F8360020F4360020084A1378E2
S2140056D0013B012B0AD807490B6C03F00303012B8F
S2140056E002D1CB6FDB03FCD503231370704700BFDA
S2140056F00B3E002000300E40054A064BD16C196068
S214005700D36C23F47F4343F4EE43D364FFF7A6BF82
S21400571000300E40C421002038B5164B164DD3F885
S214005720804145F60E02C3F880212A6822F0AA02BC
S214005730D205D20D1A66114B1B78032B04F0010418
S21400574012D0042B12D0022B02D10020FFF7F2FE5B
S2140057502B68DB075EBF074B02221A661CB1054B9F
S2140057600022C3F8802138BD0120EFE7FFF708FFCD
S214005770EEE700BF00400E40C02100200A3E002099
S21400578008B5054BD3F89020044B11201A60FFF79C
S21400579073FC034B187008BD00400E40C02100206B
S2140057A00A3E002010B5044608B1FFF7E9FF124A8A
S2140057B0136943F004031361FFF79EFFFFF786FFAC
S2140057C022F0A3FA22F0A2FA0C4B0D4AC3F82424C6
S2140057D030BF22F09CFA02F063FC0A4B1A680A4BB0
S2140057E0DA64FFF73BFF1CB9BDE81040FEF7C2BE07
S2140057F0BDE81040FFF790BF00ED00E000A00040BD
S2140058000000FFFFC421002000300E4010B5044603
S21400581008B1FFF7B5FF184BD3F8802145F60E0107
S214005820D20748BF0022C3F880114FF420711966D2
S21400583048BFC3F88021114A136943F0040313617B
S214005840FFF75AFFFFF742FF0D4B0E4AC3F824241A
S21400585022F05BFA30BF02F023FC0B4B1A680B4BAE
S214005860DA64FFF7FBFE1CB9BDE81040FEF782BE07
S214005870BDE81040FFF750BF00400E4000ED00E0CE
S21400588000A000400000FFFFC421002000300E40B2
S2140058900A4903798A6922F03F021343027843EAF1
S2140058A08203427843EA4203827843EAC203C2781C
S2140058B0012A08BF43F001038B61704700300E4099
S2140058C01A4B4AF6E85210B5596B5A639A6FD407CA
S2140058D0FCD41B6C13F0030306D0154A012498422F
S2140058E0C2F8B44A0AD110BD18B9114BC3F8B40AAD
S2140058F0F9E7012802BF0F4B02221A700B4B9A6F72
S214005900D207FCD41A6C22F0030202431A649A6F80
S21400591012F00102FBD10038054C18BF0120012906
S214005920C4F8B40A08BF5A63DDE700BF00300E4073
S2140059300000C6430B3E0020A0F5E163B3F5966F6A
S2140059402DE9F04102D90020BDE8F081574C584BB4
S214005950D4F81872B0F5E16F1CD0DD6CC5F3017594
S2140059603C0E2E02C7F307474FF4966C4FF4E16ED9
S21400597001233343B3F5007F4C4E59D017D8B3F507
S214005980807F52D040F20118434545D0CBB9D6F8B7
S2140059901C3218E0DD6CC5F30175C7F307242E0230
S2140059A0FFB24FF4167C4FF4966E0023E1E7B3F592
S2140059B0407F40D040F20138434533D0D6F82832F5
S2140059C001E0D6F82432C3F30726DBB2A4EB0708BF
S2140059D0A0EB0E0E0EFB08F8B8FBFCF84744A742F7
S2140059E0B1D8F41A0EFB04F4B4FBFCF41C44B44225
S2140059F0A9D872B12E4AD36DB0F5E16623F4FE4302
S214005A0018BF012623F0020343EA460343EA0723AE
S214005A10D36599B9012097E7D6F824321E0EC3F352
S214005A200743D3E7D6F82832F8E7D6F81C32F5E76E
S214005A30D6F82032C7E7D6F82032EFE71B4BD3F86C
S214005A400021D2B2032A07D8B0F5E16FD3F82C3282
S214005A500AD0C3F3072308E0022DD3F8303220D053
S214005A60032D21D0012DF4D0DBB21B0313F4702FCD
S214005A707FF469AF0E49CA6E22F470421343CB66B8
S214005A804B6E23F4FF7323F00103B0F5E16F18BFEC
S214005A9043F00103E72C28BFE72443EA44034B66A0
S214005AA0B8E7C3F30743E0E71B0EDEE70081E00F2D
S214005AB000300E40184B1A6FD96C11F0010F02F02F
S214005AC0060213D092B1132821D9143813288CBF9C
S214005AD0102308231048013BC26C190322F47F42AE
S214005AE041EA03231343C364FFF7B8BDD96C01F042
S214005AF00101114304D1092809D90A380928E6E723
S214005B00DB6C13F00103E5D01AB92728DFE704237E
S214005B10E0E70023DEE700BF00300E40064A074BF2
S214005B20D3F88039136F23F0070303431367044B3E
S214005B301888FFF7BFBF00BF00300E400000C64306
S214005B40F63600204E4B37B502229A639B6B03F065
S214005B500F039342044603D00025284603B030BD09
S214005B60484BD3F81C32013312D0474BD96B9A6B93
S214005B701160596C1A6C1160D96C9A6C1160596D71
S214005B801A6D1160D96D9A6D11605A6E1B6E1A608F
S214005B90E288A188B4F90C004A2A65D9B2F5FA7FE2
S214005BA064D340F6C3139A428CBF4FF040524FF076
S214005BB00052334DEB6C23F0405323F001030028D2
S214005BC0A8BF43F001031343EB64304B1980EB6E20
S214005BD043F08073EB662E4BD3F8800900B10420A7
S214005BE0FFF79CFF2B6E23F0C0432B66EB6C43F055
S214005BF0060301A8EB6400F037FB9DF805000128BA
S214005C0011D19DF80430022B0DD822490B7853B9D8
S214005C106B6C214A43F001036B642B6E1A401F4BDA
S214005C2013432B6608701E4B218919801D4BB4F94F
S214005C300C20A0881A80FFF73DFFA37BCBB1012B79
S214005C401BD0012260881146FFF776FE0546002825
S214005C5082D0A37A0E4A003B18BF0123C2F89437BD
S214005C606078FFF72DFE78E70022A2E74FF080521B
S214005C709FE7034B0C4A9A65E3E7014B0B4AFAE7AA
S214005C8000300E400081E00F0080E00FF636002066
S214005C900000C6430B3E0020000F0EF0B4C0400BC1
S214005CA0F8360020F436002077402057372110B70A
S214005CB01F4A10B5D2F8903168B9012B33D14AF695
S214005CC0E851C2F890111A49D1F8642142F07402E2
S214005CD0C1F864210EE0012B06BF4AF6E851C2F86F
S214005CE090110023022820D1D2F8641121F074010B
S214005CF0C2F864110E4A0F4CD2F89C1141F008010C
S214005D00C2F89C11E16B21F4406141EA8021E16315
S214005D10D2F89C1121F00801C2F89C1113B100239F
S214005D20C2F8903110BD0346CDE70220CBE700BF96
S214005D3000300E4000400E40144A1548D2F8B030ED
S214005D40C3F3074307EE103AD2F80431DBB207EE8E
S214005D50903AB8EEE76ADFED0F7AC6EE276ADFED17
S214005D600E7A76EEA76A026A016AD2B2C9B28A428F
S214005D70F9D19B1A07EE903AF8EEE77AB8EEC77AB2
S214005D8007EEA67A17EE100A704700BF0081E00FF4
S214005D9000300E400000C842A8C68B3E00EB400014
S214005DA0F8B50D461F46040116463AB115480123BC
S214005DB08B402044C7B100F1C0600360072D4FF050
S214005DC00F0114D8AB00104806FA03F2994020449D
S214005DD021F0A2FF3EB90B4A0123AB40224477B123
S214005DE002F1C0621360F8BD00F18060E5E7A5F13E
S214005DF008039B00054806FA03F29940E7E702F11C
S214005E008062EFE70CA0004004A0004008A000401D
S214005E10084B4FF48072C3F88020BFF34F8FBFF358
S214005E206F8F054B0021D9664FF48A401962FFF741
S214005E308DB800BF00E100E000200E40034B034495
S214005E409B0081F001011960704700BFA001F110AE
S214005E5010B5044601214FF48A40FFF777F8B4F8EE
S214005E60013022785BBA9BB243EA02630B4A1360A6
S214005E7000231362D36253634FF00043D3664FF0A0
S214005E80FF339366064A4FF48071C2F88011E378B8
S214005E905B01DBB282F80833116010BD00200E40B3
S214005EA000E100E0F8B5254D8F7AD1F800C0C3B206
S214005EB001269E404FF0300ECB7A0EFB00500C466B
S214005EC01B05097BAE6643EA0743C0F880C094F81A
S214005ED00DC0C0F888C043EA415322F00302C0F860
S214005EE08430C0F8982021F0F6FDEB6E3343EB6665
S214005EF0237A13B16B6B33436B63637A13B1EB6A2C
S214005F003343EB6223792A6823B1DB431B0263F435
S214005F107F431A4063790BB142EA0322A3790BB19F
S214005F2022EA0302E3791343044A1360044B9E6299
S214005F30D663BDE8F84021F0D4BD00BF00200E4077
S214005F4000200E4410B5C0B20124844021F0C3FDE9
S214005F50054AD36E23EA0403D366044B1C62BDE8ED
S214005F60104021F0BEBD00BF00200E4000200E44B1
S214005F7010B5C0B20124844021F0ADFD074B1A6A6B
S214005F80224208D19B6A9C430CBF0124002421F0C6
S214005F90A8FD204610BD0024F9E700BF00200E40F3
S214005FA0044B41F671321A649A6822F001029A6034
S214005FB0704700BF00000E40034B9A6822F00102B3
S214005FC09A6000221A64704700000E40094A0A4B85
S214005FD0D969C90705D512B96FF002007047013AB2
S214005FE0F6E7002AF8D001221861DA60D86940F393
S214005FF0800070478096980000000E4070B509B982
S214006000002070BD0E4A0023082550F823409461F6
S2140060100C4CD5600133D669F60705D514B96FF078
S2140060200200EEE7013CF6E7002CF8D0D469A4079E
S21400603002D49942E9D1E3E76FF00100E1E700BF3F
S21400604000000E4080969800224B2DE9F0470D4642
S21400605041F671311E6C1964996841F00101814660
S214006060B6B299609708A8464FF0000ABA450ED314
S2140060700020D9F800202B689A420ED04846FFF739
S214006080A5FF50B901212846FFF7B8FF05E009EB48
S2140060908A042046FFF79AFF48B10E4B9A6822F012
S2140060A001029A600EB100221A64BDE8F087C4F3BC
S2140060B00A01C1F500618908A7EB0A03994228BFC7
S2140060C019464046FFF79AFF0028D2D18A4408EBCB
S2140060D08108CBE700000E40214B41F671311A6C67
S2140060E01964996841F00101996001211861D9602D
S2140060F0D969490792B209D5996821F001019960DA
S2140061000AB100221A644FF0FF3070470221D960AE
S2140061101449D869C00700D569B9D86910F00200DB
S2140061200BD0996821F0010199600AB100221A6427
S2140061306FF0010070470139EBE741B9986820F02D
S2140061400100986002B119646FF002007047996808
S21400615021F0010199600AB9002070471864FBE736
S21400616000000E4080969800014B01229A6070470E
S21400617000500E40194BF0B500215D68184C194EC2
S214006180194F0846D6F8E8C1626823681CF0040F69
S2140061900BD1B3F5006F06D01DD8B3F5007F02D043
S2140061A0B3F5806F01D142F48072D7F888C01CF432
S2140061B0807F18BF22F01C022B4202D02A4208BF62
S2140061C018430131092904F10804DBD1C30348BF91
S2140061D020F01C00F0BDB3F5803FE3E700500E4012
S2140061E0B4F202000040E00F00300E408B784A7890
S2140061F09B0143EA82030A781343CA7843EA0213F0
S2140062000A7943EAC2234A7943EA02338A79043098
S21400621043EA42430001014A1350704700200440FD
S214006220014B1860704700BF0000844243788278B4
S2140062309B0043EA021302781343C27843EA4213F0
S214006240027943EA0223427943EA0233827943EA37
S214006250C233C27943EA0243027A43EA4243014A1E
S21400626013607047002004400D4AD2F8E430D2F89C
S214006270E0109B0003F03C03C1F381110B438370D5
S214006280D2F8E03003F03F034370D2F8E830D2F89B
S214006290EC2003F0F003C2F30312134303707047BD
S2140062A000FF0FE0024BD3F8FC00000E704700BF63
S2140062B00081E00F044BD3F8E4301B0E0A3303F0E2
S2140062C01F030120984070470081E00F70B5054617
S2140062D016461C4619B91448FEF770FF0146402CB6
S2140062E01BD003D8DCB1202C1BD070BD602CFCD199
S2140062F0042303FB06F2530803EB4113B3FBF2F34C
S2140063000A4A203B02EAC3032A6822F060022A6097
S2140063102A6814432C606B61E7E70623E9E710233D
S214006320E7E70823E5E700BF40410500F8FF7F00E8
S21400633040F6AA63C36041F2050200230360426090
S2140063400B4A83604361C36482640A4A03669042D0
S21400635043678367C36705D002F58062904203D027
S214006360836570470365FBE703658365C365704710
S214006370F9FF01000000014038B5044625F049FC4D
S2140063800FCC044D0FC594E80F0085E80F000020E1
S21400639038BD00BFC821002047F6FF739A42F0B50B
S2140063A072D0062972D83A4B5B5C022B6ED8394DF8
S2140063B005EBC304DF00A17815F83330012938BF98
S2140063C00121012B13D1E0780025401AA84202D8FB
S2140063D00844C0B2F0BD431BA0EB5303666836F911
S2140063E013609642CCBF03F1FF301D46EEE76068AF
S2140063F00028EFD0B0F90040944204DBB0F9024028
S2140064009442B8BF14468388FF2B04BFB0F9062019
S214006410B0F908C03D440FBF01260026C8224FF041
S214006420280C131B93FBFCF333446E781BB29E427E
S21400643001DD002B01DA731E1BB201339BB24FF451
S2140064407A7C071D5D1E2DB24FEAC50E00EBC50512
S2140064509E42EA88AD6814FB025222EAE27202F11A
S2140064605C02B2FBFCF205DD37F83350954203F1CF
S2140064700103E7D200EB0E039888904228BF10462F
S214006480884238BF0846A4E7FF20A3E70020A1E71C
S214006490FCF20200C82100200629F0B561D8324B74
S2140064A0595C02295DD8314B13F83100012816D10A
S2140064B003EBC1039C78D8785B68012C214638BF73
S2140064C00121904294BFC1EB0001C1EB0201CAB2A8
S2140064D0001B8242C8BF002233F91200F0BD002A1A
S2140064E03DD003EBC103596800293AD09878904212
S2140064F002D3B1F90200F1E7DC78B1F9000094426A
S214006500ECD95C788B88A3F1FF06013C734201F15D
S2140065100405E4B2734101F10C07DEB2B44216D8AA
S21400652005EBC3034FF47A75B3F902405B686A4320
S214006530D21A04EBD47302EB630292FBF4F290429D
S214006540CCDBB1F902009042C8DC10B2C6E737F8DF
S21400655033C0944503F10106E2D33346DDE7044831
S214006560BCE70448BAE700BFFCF20200C8210020DE
S2140065700CFEFFFF0080FFFF08B50448FFF7FCFE97
S214006580BDE80840012025F069BB00BF04F3020007
S2140065907FB51422002101A824F0D4FB044B0293FB
S2140065A001A94FF0FF3025F095FB07B05DF804FB1E
S2140065B0006A1800024B03480122C3F804267047FD
S2140065C00010C84300000F40054B984201BF03F17E
S2140065D06E7303F588330022C3F80426704700BFA5
S2140065E000000F4010B504462369DB07FCD404F115
S2140065F0800021F0BDFA014B236510BD5105450111
S2140066002DE9F043064689B0174698460C46002901
S2140066104DD1FFF7CFFF01460446304621F0E6FB9A
S2140066204FF0010996F86C5006F15C01C5F10F06B3
S214006630C5F10E03F6B22A460DF1010001358DF8BC
S214006640003024F0DEFA324600210DEB050024F07F
S21400665079FBC6F1100001233246002168448DF80C
S2140066600F3024F06FFB21F02BFA04F1800605466C
S2140066706946304621F07CFA0E4B23652369DB071A
S214006680FCD404A9304621F090FA284621F01CFAE2
S214006690424604A9384624F0B4FAB9F1000F02D0F5
S2140066A02046FFF791FF002009B0BDE8F0834FF0C9
S2140066B00009B7E7055101002DE9F04F89B00546FE
S2140066C0DDF8489016461F460C4639BBFFF772FFAA
S2140066D001460446284621F089FB4FF0010B6B6CFF
S2140066E033446B6421F0ECF98246D6B9504621F06B
S2140066F0EBF9BBF1000F0ED021F0E2F905F14C01E9
S214006700064604F1840021F050FA304621F0DCF908
S2140067102046FFF759FF09B0BDE8F08F4FF0000B99
S214006720DDE72B79102EB04628BF4FF01008012B5E
S2140067300DD110220021684624F004FB394642465B
S214006740684624F05EFA69462046FFF74BFF394656
S21400675004F18C0021F00CFA124B236501236365CB
S2140067602369DB07FCD404A904F1800021F01DFA9C
S21400677004A94246484624F044FA297961B9102211
S214006780684624F0DFFA49464246684624F039FA5D
S21400679069462046FFF726FFC1444744A6EB080695
S2140067A0A3E700BF4805590370B5048804F4E04326
S2140067B0B3F5005F05461ED1C4F30223042B1AD19D
S2140067C081F0AA6383F4807333F47E13204821F4A7
S2140067D07E1618D081F0AA6383F4007333F47E1318
S2140067E011D0864230D1B4F5105F0CBF6FF0860032
S2140067F06FF0850070BDB4F5105F25D1144B21F401
S2140068007E119942F1E786424FEA1143C1F30541F2
S2140068101AD1B4F5105F17D104390C2911D813F02A
S21400682001000ED1073A062A0BD86B88C02B0BD076
S214006830B3F5807FDED0802B0CBF00206FF0860083
S214006840D8E76FF08600D5E76FF08500D2E700BF87
S214006850000140052DE9F04FA7B0DDE93475DDF8FD
S214006860D880DDF8EC90089206461C468A4629B980
S2140068706FF08602104627B0BDE8F08F0028F7D0EC
S214006880309B002BF4D0329B13B9339B002BEFD1F7
S214006890002F7DD1002DEBD1389B002BE8D0B9F12D
S2140068A0000FE5D03A9B002BE2D0399B002BDFD0BF
S2140068B0338803F4E042B2F5005F74D1C3F30222DA
S2140068C0042A70D184F0AA6383F4807333F47E13B1
S2140068D006D084F0AA6383F4007333F47E136BD17E
S2140068E0C4F30543319AC9F800302146304609936F
S2140068F0FFF75AFF02460028BCD17288089BB3EB0C
S214006900D20F4FEAD20BB3D3379B9D425FD83A9A49
S214006910099B93425BD8474508D27B19984505D218
S21400692039462A46404624F0F3F9474670220021AD
S2140069300AA824F007FA5A4651460DF12D00CDF864
S21400694050B024F05EF9234B24F47E149C423BD1D5
S2140069503388B3F5105F37D1D9F800300693399BEA
S2140069600397CDE90483339B0293329B0193319BBB
S21400697000932A46309B01210AA821F052FB0246CA
S214006980E0B9389B1D6070210AA821F042FB71E730
S214006990002D81D0B8F1000F3FF46AAF379B002B73
S2140069A07FF47AAF64E742F20402934204D184F0A3
S2140069B0052383F4801390E7002393E73899002398
S2140069C00B60C9F80030DEE76FF08502DBE76FF09A
S2140069D089024FE7000140052DE9F04FABB0DDE935
S2140069E038A4DDE93B6589460992984607460028A3
S2140069F000F0A280002900F09F80349B002B00F05E
S214006A009B80369B1BB9379B002B40F09580BAF1D4
S214006A10000F02D1002C40F08F801DB93D9B002B4B
S214006A2040F08A803E9B002B00F086803A9B002B2D
S214006A3000F08280359A41463846FFF7B5FE02469A
S214006A40002866D17A88099BB3EBD20F4FEAD20BA7
S214006A5072D33D9B9C4272D8AA4509D20AEB040227
S214006A60954205D251462246284624F051F9AA46B8
S214006A70702200210EA824F065F95A4649460DF109
S214006A803D00CDF860B024F0BCF82E4A28F47E18FD
S214006A9000219045CDE90A11CDE90C1149D13A887B
S214006AA0B2F5105F45D1379B0293369B01930AAF30
S214006AB0359B00932246CDE90457349B0696CDF8C5
S214006AC00CA00EA821F0ADFA0246C8B93A9B38468B
S214006AD003EB060C90469C451FD11EB13146384646
S214006AE021F097FAB8F1000F20D03E9A00231360E9
S214006AF01CB12146284621F08CFA6FF0940204E07F
S214006B001EB13146384621F084FA70210EA821F0D5
S214006B1080FA10462BB0BDE8F08F10F8011B13F872
S214006B2001EB81EA0E0148EA0108D4E73E9B1C60AF
S214006B30EBE76FF08502E8E76FF08602E9E76FF0B3
S214006B408902E6E7000140052DE9F04F8FB0984630
S214006B50DDF86CA0049093460023B8F1000F16D021
S214006B60D8F800401029CDE90633CDE908330CBF2C
S214006B7008231023029300255D450AD3B8F1000FC1
S214006B8001D0C8F8004000200FB0BDE8F08F4446A2
S214006B90E8E75CB1199B1A9A1B5D525D01345340BD
S214006BA00AF8053004F00F040135E5E7FFF702FDAB
S214006BB04FF4404344600360064620F081FF029A8B
S214006BC004990746304621F025F806F18403184656
S214006BD01899019320F0CCFF3846ABEB050720F060
S214006BE073FF27F00F0706F1A0032F440593AAF1C1
S214006BF01009BD4234D11A9B3B440AAD03F1100C78
S214006C00186859682A4603C2083363451546F7D103
S214006C100F2F0ED90AEB070306AD103B0DF1280C1B
S214006C202A4603CA624518605960154603F10803F0
S214006C30F6D106F1800357440AEB0B0903934F4540
S214006C4036D120F03DFF18990546019820F0ADFF9B
S214006C50284620F039FF3046FFF7B6FC5D468BE746
S214006C6020F02EFF224B039033653369DA07FCD4FD
S214006C701A9B0598591920F07BFF0F2D0ED90DF1A0
S214006C80180C09EB05020DF1280E634603CB73457D
S214006C90106051609C4602F10802F6D106A906F182
S214006CA0800020F082FF039820F00EFF1035A0E74A
S214006CB074B920F005FF0E4B336505463369DB07D4
S214006CC0FCD40398199920F070FF284620F0FCFEAB
S214006CD004F138030DEB0302199B12F8102C1B5D10
S214006CE00134534007F8013B04F00F04A7E700BF48
S214006CF0480503012DE9F74FDDF848A0DDE90E74DD
S214006D00DDE9106883461D46894621B96FF0860086
S214006D1003B0BDE8F08F002AF8D00FB9002CF5D1EB
S214006D2016B9B8F1000FF1D1BAF1000FEED02E4B24
S214006D309D4215D00BD82D4B25F4807199420FD06B
S214006D4003F580639D420BD06FF08500E0E7284B8B
S214006D509D4205D025F40071A3F580739942F2E7B1
S214006D60BBF80030B3F5105FEED1BBF80230B2EBE3
S214006D70D30FE9D3802B02D0B3F5807FE4D124B3C0
S214006D80B7420AD23B199E4207D24445BED839467E
S214006D902246304623F0BCFF3746164BBBF802B0FF
S214006DA09D424FEADB0BCFD14445AFD814F00F0518
S214006DB0ACD17319009301227B195946484621F03D
S214006DC069F930B91035AC42F3D8CAF80040002053
S214006DD09EE742460021304623F0B4FF0023CAF85F
S214006DE000306FF0920093E70010C00400404004AB
S214006DF00012C004004440042DE9F04F91B0DDE9D4
S214006E001A4ADDE91C56DDF8789007469B46884608
S214006E1029B96FF08608404611B0BDE8F08F002A09
S214006E20F7D014B9BAF1000FF3D10DB9002EF0D196
S214006E30B9F1000FEDD0574B9B4515D00BD8564BEC
S214006E402BF4807199420FD003F580639B450BD0DD
S214006E506FF08508DFE7514B9B4505D02BF400719A
S214006E60A3F580739942F2E73B88B3F5105FEFD144
S214006E707B88B2EBD30FEBD3802B02D0B3F5807FA9
S214006E80E6D1BAF1000F04D1C9F800A04FF000080F
S214006E90C1E7AC420BD204EB0A039D4207D2B245CF
S214006EA0B7D821465246284623F032FF2C46394BA7
S214006EB07F889B454FEAD70758D003F540739B451C
S214006EC021D0374B9B45C3D1B245A2D81AF00F0B41
S214006ED09FD140463B4608AA394621F015F9804620
S214006EE0002898D105EB0B030093002204EB0B035C
S214006EF0394608A821F0CEF8804670BB0BF1100B7F
S214006F00DA45EFD8C0E7AAF10D0AB2453FD801230B
S214006F108DF810300DF11102234604F10C0153F8E0
S214006F20040B42F8040B8B42F9D11B7813704FF414
S214006F308073ADF81E300D3404ABCDE90033404607
S214006F40CDE90245002352463946FFF7FDFDC9F854
S214006F5000A0804600283FF45EAF32460021284657
S214006F6023F0F0FE0023C9F8003054E7AAF1100A17
S214006F70B2453FF64EAF04AA04F1100C20686168D3
S214006F80134603C3083464451A46F7D1D4E76FF0B6
S214006F90890840E70010C004004040040012C00406
S214006FA0004440047FB5094B6A4603F110061546B7
S214006FB018685968144603C40833B3422246F7D10A
S214006FC02846FEF7BFFD002004B070BDBCF30200EB
S214006FD070B5184B86B001AA03F11006154618685E
S214006FE05968144603C40833B3422246F7D11B88B7
S214006FF02380114BD3F8B420120316D5A3F5004313
S2140070004FF6FF721B88934208BF4FF4B4730B48C9
S214007010ADF80A30FDF7C6FA2846FEF7CFFA32205A
S214007020FEF77AF9002006B070BDD3F8B830C3F387
S2140070300803ECE7CCF302000081E00F00F0490201
S21400704010B50C480C4C6FF00403A02113F0800F11
S21400705003F1010207D12344222A83F800131346C2
S214007060F4D1002010BD03F00F03043B034419764F
S2140070701346EBE700ED00E000E100E010B5044643
S21400708020F01EFD024B1C6020F01EFD002010BDEF
S214007090E821002010B520F013FD034B1C6820F0FB
S2140070A013FD204610BD00BFE821002030B5144671
S2140070B087B00546104621F0DFF8636983423CBF7F
S2140070C0D4E903315B181B1A02467BB10F490391C2
S2140070D00021CDE90131012304940093D4E9001383
S2140070E0284620F099FC002007B030BD01226276C9
S2140070F094F82D20002AF6D084F835301321E36961
S21400710020469847636A20469847ECE7AD70000033
S2140071102DE9F04788B004460F461646984620F0FC
S214007120DAFC8146002E7BD0237E03F0FF02002B84
S21400713000F0A380204621F09FF86569A84205D19B
S214007140637ED4E9033213445D1B01E0F9D9451B85
S214007150B54228BF354620F0BEFC94F82D30824656
S214007160002B6ED161692A46384623F04AFD6369D2
S2140071702B4463612E4621E0037803F0FD011129BC
S2140071805CD1216B814205D1A3F111014B424B41E9
S21400719084F83430013E6369216B8B4203F10103AE
S2140071A008BF23636361013295426069E4D1D4E984
S2140071B00323216B1344994200D12263D4E90323AD
S2140071C06169207A134499424FF0000508BF626156
S2140071D06576FDF789FB204621F04EF86369834209
S2140071E032D194F82D302576E568656103B12563C4
S2140071F0636A20469847224B039300230494029325
S214007200236901930123009363682168207A2A4644
S21400721020F002FC207AFDF787FB504620F061FC48
S2140072204846C8F8006020F05CFCD8F80030002B18
S2140072300CBF1B20002008B0BDE8F08707F8013B14
S214007240A9E72E460022AFE701232376207A0DF128
S2140072501E01FDF7D1FB9DF81E30002BDAD00DF194
S2140072601F01207AFDF7A0FB9DF81F100029D1D141
S214007270207A2246FFF71AFFCCE71646D0E700BF73
S214007280AD700000002807DB044A4109012300F026
S2140072901F00834042F82130704700BF00E100E045
S2140072A0002808DB4309044900F01F000122603370
S2140072B0824041F82320704700E100E070B50446A4
S2140072C00568FFF7E7FE844202D10020FFF7D6FEEE
S2140072D095F936603046FFF7E3FF002E0CDB7309A6
S2140072E0194906F01F0620330122B24041F8232038
S2140072F0BFF34F8FBFF36F8F95F937603046FFF7B8
S214007300CFFF002E0CDB73090F4906F01F06203353
S2140073100122B24041F82320BFF34F8FBFF36F8F97
S214007320287AFDF721FB287AFDF782FAFDF75EFA48
S2140073300023C4E90033C4E90433A3602846AB6ADB
S214007340BDE87040184700BF00E100E02DE9F043BB
S2140073500C461546064687B04022002120461F46AA
S21400736023F0F0FC002395E803002A692376EB68F7
S214007370E360C4E904232A7D84F82C20AA7D2363D5
S214007380012384F8343084F835300E9B236284E879
S21400739003000F9B6362109B84F82D20E761A362B5
S2140073A02B7A84F836306B7A84F837302D4B73603E
S2140073B02D4BB3602D4B33612D4B346073612D4BD9
S2140073C0F360FDF75BFA38B12B4B984204D01024DB
S2140073D0204607B0BDE8F083002104F10800FDF761
S2140073E0D5F907460028F2D1244B33624FF0010846
S2140073F0234B84F83C80B361224BF3619DF8483000
S21400740084F83B309DF8443084F83A30697D84F83F
S214007410390084F83880204620F03FFF95F909901F
S2140074204846FFF73DFF4846FFF72CFF164B0494EF
S214007430CDE902732369CDE900836368E2682168B9
S214007440207A20F0E9FA04460028C0D195F90850C1
S2140074502846FFF725FF2846FFF714FF3046FFF7BC
S2140074600DFEB5E7EB820200117100006782020094
S2140074706D820200BD720000038000F041820200AF
S2140074809B82020073820200AD7000002DE9F0417D
S21400749086B01C46524B0C9D0293524B019301261C
S2140074A0514B0093CDE90366504B90460A46294659
S2140074B0FFF74CFF0746002856D123682B64636805
S2140074C06B64637A85F84930237A85F84830E37A26
S2140074D085F84B30A37A85F84A30637B85F84D30C3
S2140074E0237B85F84C30E37B85F84F30A37B85F80B
S2140074F04E303F483146FDF729FD3E483146FDF700
S21400750025FD617A207A33460422FEF747FC33468F
S2140075100222E17AA07AFEF741FC60683146FDF768
S21400752015FD88F800704146206820F00DFC2268A2
S214007530536F43F003035367936F617C23F4F85350
S21400754023F01F0343EA0123A17C0B439367032325
S214007550536785F8507098F81920202A28D007D845
S214007560E2B1102A38D02327384606B0BDE8F081AD
S214007570302AF8D185F8503002220023617B207B28
S214007580FEF70CFC2368E27CDA675A6E42F00402CF
S2140075905A665A6F42F010025A6766B92A6C20681B
S2140075A0D36C43F00403D364052120F0C6FBDBE76D
S2140075B0022385F85030E17BA07B00230422FEF7EF
S2140075C0EDFB2368217DDA6F42EA0122DA675A6F03
S2140075D042F020025A67E1E733463E46CAE700BF5C
S2140075E0178402000B840200A38402009784020022
S2140075F04041050000250A0007B500F077FF6A46FF
S21400760000F0DAFF18B10448522100F005F9DDE970
S214007610000103B05DF804FBDEF3020008B500F0DD
S21400762099FE18B102487A2100F0F6F8002008BD4D
S214007630DEF3020008B500F04FF80E4A536A43F432
S214007640E0235362EFF308830B4A043B4FF0CD313F
S21400765093420BD2FDF7A0FB084B01221A61FFF7FD
S214007660DDFFBDE808400648FEF786BE43F804196D
S214007670EEE700BF00ED00E00000002000300E4006
S21400768004F3020007B504220DEB0201002024F0EB
S2140076909DFA042804D0054840F2671100F0BCF8B3
S2140076A0019800F0FFF903B05DF804FBDEF302007A
S2140076B010B50A0A41400748C9B2082301F0010480
S2140076C0490804B14140013B13F0FF03F6D181EABB
S2140076D0020010BD2083B8ED10B5FEF74BFD044642
S2140076E0FEF742FDE30721D401221046114600FAB8
S2140076F001F3234002F101021AD0214B33F8113076
S2140077002049062B19D040F20722934212D14FF09F
S21400771000524FF20F00548884420BD110889842D2
S21400772008D14CF23C335380088010BD0021E4E7BA
S214007730112ADBD1134A138012E04FF000534FF2A8
S2140077400F025888904218D11B88B3F5406F28BFA7
S2140077504FF4C0630B804FF000534CF23C325A801B
S214007760084B1A8840F201739A4201BF064A074B3B
S214007770D2E90001C3E90001D7E74FF4C063E9E7A7
S21400778068F40200FA36002090100020EC21002059
S21400779010B5044620F09BF9194B4AF6E8529A6059
S2140077A05A639A6B02F00F02022A13D1154AD2F8D6
S2140077B0C820520742BF144A012111641B6C03F013
S2140077C00303013B012B9FBF104B0022C3F8702C14
S2140077D0C3F8802E4FF000534FF20F021C805A80E1
S2140077E0BFF35F8FBFF34F8F09490A4BCA6802F495
S2140077F0E0621343CB60BFF34F8F00BFFDE700BFCF
S21400780000300E4000400E40004008400000C643D6
S21400781000ED00E00400FA0538B504460D4624F0F5
S21400782026FF08492B462246002020F0FCFC20F0CC
S214007830C7FE20F04CF929462046BDE8384020F027
S214007840A5BE00BF55F402006B4A6C4B2DE9F04113
S21400785055685D65516A996569496A4CD1F80002B8
S214007860D865D1F804121966916A5966D16A996684
S214007870116BD966516B1967D26B586B5A67D3E98F
S2140078800E1210F0040F18BF11465F4A1A6500204A
S2140078909142D8645DD301F12000A04259D888698E
S2140078A01864C5F30805CE695E64062D55D1574D9C
S2140078B0A84252D3564DA8424FD205884DF6426094
S2140078C085424AD11868C3F890005868C3F89400F7
S2140078D040F20170A242154605D22E68B6F1CD3FA1
S2140078E002F10402F6D00022C3E91E22C3E92022D8
S2140078F0C3E92222641BDFF814C1424DDFF810E111
S2140079009C648D422CD8D3E91EC7D3E92065D3E901
S21400791022414FF0000E013AD2B2FF2A3BD1BEF10F
S214007920000F05D0C3E91EC7C3E92065C3E922419D
S214007930B3F85430C3F30803DA1E0F2A52D8DFE830
S21400794002F03458414451515151514E5151515108
S21400795051380021C3E910112B494FF42060B9E7D4
S21400796055F8044D6445CCD37445CAD2E607C8D54D
S214007970284F002657F8048FA045C2D00136062EA1
S214007980F8D132B1013AD2B202F11E0643F82640CF
S214007990B7E70522F8E7E0464FF0010EBC4637464B
S2140079A02E4625460C464146B5E740F60120BDE882
S2140079B0F081194BDB6913F0020F40F2025318BF37
S2140079C01846F4E740F60320F1E740F2017240F66D
S2140079D00423B0F5206F14BF10461846E7E740F6BC
S2140079E00520E4E7013B40F60722302B98BF1046FF
S2140079F0DDE740F60220DAE700ED00E000100020A8
S214007A0000E100E00010002000000020C840000058
S214007A10E0F10200741000200020054000F00CB8D1
S214007A2000F00AB800F008B800F006B800F004B895
S214007A3000F002B800F000B872B61EF0080F09D0C9
S214007A401EF0040F0DD0DFF850E0AEE8FF1F6FF019
S214007A5002000CE0DFF840E0AEE8FF1F6FF00E001B
S214007A6005E0DFF834E0AEE8FF1F6FF00600694679
S214007A70EFF309828EE8070086460848084C8545DD
S214007A8001D3A54501D384F30888FFF7DDFE84F310
S214007A900888FFF77DFE0000001000204000002050
S214007AA00010002083B24BF6EF62002B08BF13468F
S214007AB0044A000C13804FF6CE2308BF1846024B2C
S214007AC0188070475C1400205A1400200B4BB3F942
S214007AD000201888002AB8BF80F0620042001A8092
S214007AE0074AB2F9001013880029BCBF83F48053FC
S214007AF083F00B0359001180584070475C14002037
S214007B005A14002008B500F043FF60B10A4B034446
S214007B10072B0DD8072B0BD8DFE803F00C060A0856
S214007B200A0A0A04C12008BDC320FCE7C420FAE7FD
S214007B30C520F8E7C220F6E7FF1FFF0F054B1A78AF
S214007B402AB95B78002B0CBF032002207047012067
S214007B50704700BF153E00200329F8B598BF134BA9
S214007B60054698BF5C5C0E4688BF0024032805D8EF
S214007B70DFE800F002080B0E44F002040C4B1F680E
S214007B804FB9F8BD44F00804F8E744F02004F5E7E0
S214007B9044F08004F2E77B681A68144203D05B68FE
S214007BA03146284698473F68EAE700BF90F402004F
S214007BB02022002038B5104D2B78ABB10F4C23781F
S214007BC01BB120F00DFD00232370002020F009FDDE
S214007BD00B4C50B100F082FA002320782B70012164
S214007BE0FFF7BAFF0123237038BD064B01221A7037
S214007BF0054B22781A70F7E7113E00200F3E002052
S214007C00173E0020123E0020133E002010B51FF045
S214007C1057FF064B1B7804461BB1BDE810401FF00B
S214007C2053BFFFF7C7FF2046F7E700BF0E3E002012
S214007C30094A137830B101331370084B1B78012BB7
S214007C4003D87047013B13707047054B1B780BB980
S214007C50FFF7B0BF704700BF153E0020173E00205C
S214007C60123E002070B5144E1FF02AFF33780546EA
S214007C70ABB900F06FFB044620B128461FF024FF86
S214007C80204670BDAFF300800C481FF0A9FE00F040
S214007C903FFE0B4B1C6000F043FC0A4B186000F0E4
S214007CA0C7F920F0A0FC084B186001232846337063
S214007CB000241FF009FFE3E7183E002020220020E2
S214007CC0F42100201C220020F82100202DE9F84392
S214007CD0284A0138135C39B1274F39780133012916
S214007CE0135404D8BDE8F883013B1354FAE7FFF7B2
S214007CF025FF0128044635D8DFF888801FF0E0FE0F
S214007D0098F80030054613B31C4E33781BB9012291
S214007D1032701B4A1370DFF8709099F8003023B168
S214007D2020F05EFC002389F8003028461FF0CCFEC9
S214007D30012020F056FC1FF0C3FE337805461BB129
S214007D4000F0CCF900233370002388F80030284672
S214007D501FF0BAFE38788442C4D02146FFF7FCFEF6
S214007D603C70BFE70329F5D10228F3D100F002FAF0
S214007D70F0E700BF153E0020173E00200E3E002014
S214007D80123E0020113E00200F3E002038B51FF0A6
S214007D9097FE094B1B78012B054604D81FF094FE6E
S214007DA00024204638BD054B1C6800F0D5F9044475
S214007DB028461FF089FEF4E7173E0020F421002035
S214007DC038B5416004461FF07BFE21460546044850
S214007DD01FF009FE2846BDE838401FF075BE00BFFC
S214007DE020220020054B1B68584300F57420044BE6
S214007DF000F23F20B0FBF3F0704700BF1C220020CB
S214007E0040420F002DE9FF47EFF3108772B6AFF33D
S214007E10008022F038FE002871D0714EDFF8E48131
S214007E20337823B10020FFF703FF00233370FFF7FA
S214007E3085FE0446002869D0841EE4B2012C6CD965
S214007E40FFF77CFE0128674CDFF8BC91054600F280
S214007E508E802078A84205D099F80030002B00F0DC
S214007E60B2802570207800F061F999F8003013B1DF
S214007E705D4B1B782370AFF3008007B962B6EFF353
S214007E80108772B6594B1A7852B100221A70564BA8
S214007E9020781B78984203D101212170FFF75CFE01
S214007EA0534800F091FA22F0FDFD05460028B7D1B0
S214007EB0DFF8588198F80030A3B189F80000DFF8A1
S214007EC0409199F800301BB120F08AFB89F80050E9
S214007ED0002020F086FB002879D000F0FFF8002371
S214007EE088F80030337823B10020FFF7A1FE002386
S214007EF0337020780021FFF72FFE00232370AFF3A6
S214007F00008007B962B604B0BDE8F0873378002B6E
S214007F1096D0FFF78DFE347092E703A9002000F09C
S214007F20A1FA044600288BD1D8F80030039A9A426A
S214007F3005D80120FFF77CFE0123337080E72D4B28
S214007F401D6800F009F9039B05449D42F1D200F03C
S214007F5027F982000399264842F0020292B2CDE940
S214007F6000422346244A491B20F041FB68E7DFF81D
S214007F709CA09AF80030CBB920F02FFB20788542E1
S214007F8003D099F80030D3B125709AF80030002B52
S214007F907FF468AF194B1B7823B920F020FB184BF1
S214007FA001221A7001238AF800305BE720788542A8
S214007FB03FF458AF99F80030002B7FF452AF2946B3
S214007FC0FFF7CAFDE0E72946FFF7C6FD49E70120AF
S214007FD000F0ACF807B962B6EFF3108772B677E731
S214007FE0103E0020173E0020133E00200C3E0020CE
S214007FF0FC210020F42100200D7C0000143E00200F
S2140080000F3E0020F8210020123E0020113E0020E6
S21400801010B51FF055FD054B00221C781A701FF096
S21400802053FD00F095FB2043C0B210BD0D3E00206E
S21400803008B5154B5A6A5A6AD3F8903003F0040311
S214008040002B124B14BF012200221A7005D04FF4E9
S2140080501670FFF7C7FE0E4B18600E4B1B6801200C
S214008060C3F303239840C0F1010000EB80006430A6
S214008070FFF7B8FE084A136803441360024BD3F8B0
S2140080809020064B1A6008BD00400E401A3E0020A5
S2140080903022002000200440282200202422002035
S2140080A008B50B4B1B7893B1022000F003FC70B1AF
S2140080B000F008FA58B1002201210220FDF7CCF9A1
S2140080C020F0D8FA034B1860034B01221A7008BD43
S2140080D01A3E00202C220020193E002038B50E4CF7
S2140080E00E4D23782BB92B781BB120F0C3FA0C4B1E
S2140080F018601FF00FFE2B786BB10A4AD2F890304A
S2140081001B07FBD520F0B6FA054B1B68C01A064BBA
S21400811018600023237038BD193E00201A3E002048
S2140081202C22002000400E403022002002280AD0D8
S21400813003280BD001280CD1064A136923F0040348
S214008140136130BF70470020FDF72CBB0020FDF701
S2140081505DBB704700ED00E0044B1B680BB103EB02
S214008160D303034A10681844704700BF302200202B
S21400817028220020084B45F60E02D3F88011C3F8DB
S2140081808021064A126802F4A0721A66CA0744BF23
S2140081900022C3F88021704700400E4024220020B1
S2140081A0014B1878704700BF1A3E002038B500F023
S2140081B01FFB094C094B1A6823680025C31A2AB10D
S2140081C023B15169994203D3C91A5161206038BD61
S2140081D055615B1A9268F2E7382200203C220020A4
S2140081E0C38870B504460D463BB9FFF7CFFD854200
S2140081F0064602D220F0E5F935460E4965610B6861
S2140082008BB90C60A3600DE0AD1A9A6865611846DC
S2140082106AB113465A69AA42F6D930B18460521B35
S214008220A3605A6170BD0020F4E70C60F7E79C601D
S214008230A260F7E73C22002038B5134D2B685B6937
S21400824093B1124A146802201C4400F005FB204635
S21400825000F0D4FA0E492A6800230B70D0888007F5
S21400826009D501230B7038BD022000F0F5FA022074
S21400827000F018FBEEE79268002AF4D05069034439
S214008280012BEBD9EFE700BF3C220020382200206C
S2140082901C3E002070B516469DF814200271049A04
S2140082A00260C0E903360022BDF81830826004463A
S2140082B00D46C380EEB900F09BFA2844A0619DB13C
S2140082C02E461FF0FDFB0546FFF770FF31462046A1
S2140082D0FFF786FF104B1B68A34201D1FFF7ACFFE8
S2140082E028461FF0F1FB02E0E36865617BB90020D9
S2140082F070BD00F07DFA3044A061002DE0D1E36847
S2140083006561002BDDD0216820469847D9E72168B3
S21400831020469847EBE700BF3C2200200C490B683C
S21400832000227BB183420AD183687AB19360836866
S2140083301BB15A6941690A445A61002070471A46BF
S2140083409B68EEE70028EFD0022070470B60EEE750
S2140083503C22002070B5154E1FF0BDFB3478054654
S214008360FCB9134B1C60134B1C60134B1C8000F0B5
S214008370FBF9012000F070FA00F0C4FA0F4B024639
S214008380186020B928461FF0ACFB232070BD23469A
S2140083900B4840F2E73103F02FFF0A4B1860012329
S2140083A0337028461FF09DFB0020EFE71D3E00209F
S2140083B03C22002038220020FC36002040220020EC
S2140083C018FCFFFF3422002070B5044640B31FF0AF
S2140083D077FB144E0546FFF7E9FE3068A04209D049
S2140083E02046FFF79BFF0446B0B128461FF06CFB03
S2140083F0204670BDFFF792FF04460028F5D133688B
S2140084003BB9022000F036FA28461FF05DFB002438
S214008410EEE7FFF711FFF7E73368002BF4D1F0E73C
S2140084202224E5E73C22002038B50C460546A8B1D4
S214008430A1B100230B701FF04EFB094B1B680121F6
S21400844033B91FF04EFB002038BD9D4204D1217089
S2140084502278002AF9D0F4E79B68F1E72220F3E7B8
S2140084603C220020F8B506460F461FF034FB134B9F
S2140084701B680446002523B920461FF032FB1B204C
S21400848011E05A691544DA88B2420DD10C4E00F05C
S214008490AFF93368C01AA8420AD3002320463B60CF
S2140084A01FF01FFB0020F8BDFF2EEFD09B68E2E711
S2140084B000F09EF933682B441B1AEFE73C2200209D
S2140084C03822002008B5074B187848B120F0D2F8BB
S2140084D0054B1B689B69C01A02288CBF0020012030
S2140084E008BD00BF1C3E00203C22002070B51FF0D7
S2140084F0F2FA064600F07CF9084B1D880446012077
S214008500ADB200F0D7F918B100F072F901350446A3
S21400851030461FF0E6FA2046294670BDFC3600209D
S214008520014B1868704700BF40220020F8B50C4B7E
S2140085301B68834205460E460FD30A4B00241F686D
S21400854040F2E73021464FF47A720023E5FB07013C
S21400855003F052FE30602046F8BD2120FCE700BF45
S2140085603422002040220020014B1868704700BFCC
S214008570342200200F4B1A6810B59AB1531E4FF4E0
S2140085807A711342A0FB01010ED1B2FA82F2C2F157
S2140085901F04531CE040D24301FA03F3184321FAA8
S2140085A002F20243104610BD002303F025FE0246E9
S2140085B0F8E700BF4022002038B5154B8342154B24
S2140085C08B41144621D3144B1A68F2B14FF47A75D6
S2140085D0A0FB050305FB0131531E134211D1B2FA6D
S2140085E082F2C2F11F05531C01FA03F3D243E8409E
S2140085F021FA02F218431043E940C4E900010020C2
S21400860038BD002303F0F8FDF7E72120F8E700BFA8
S214008610EFA7C64B3789410040220020C2072DE94C
S214008620F84304460BD5474A138801339BB21380A0
S214008630FFF7BCFD444B1B680BB1FFF7FDFDA3071E
S2140086407DD51FF048FA0546FFF7B0FD4FF000084D
S2140086503D4F46463C680CB163698BB13B4B0022EC
S214008660012E1A7003D118F0020F18BF1E70002CCE
S21400867061D0FFF7E1FD2846BDE8F8431FF031BAA8
S21400868023465A693AB91A792179914288BF1C461D
S2140086909B68002BF5D128461FF023FA2569DDB12B
S2140086A000F0A6F8A269A0EB02084FEAE873A84516
S2140086B073F1000311DB23691344A361E368B4F884
S2140086C00680013613B12168204698471FF003FA4A
S2140086D00546FFF76BFDBDE7A8461FF0FCF981468F
S2140086E02046FFF71BFE48461FF0FBF92369002BC8
S2140086F0E4D0A38BB5EB080533B1E28B13449BB2F1
S214008700B3F57A7F0FD2E3831FF0E5F9294680465A
S2140087102046FFF765FDA36922691344A36140461E
S2140087201FF0DFF9CAE7A3F57A73E383A369013B79
S214008730013DA361E8E7022000F09CF89BE7BDE856
S214008740F88300BFFC3600203C2200201B3E0020A1
S21400875010B51FF0C0F9034B1C781FF0C2F9204675
S21400876010BD00BF1B3E002010B51D4B86B018681C
S214008770596803AA03C2197AD3F809001170019048
S214008780B3F80D201748DB7BADF8082001218DF8E3
S2140087900A300024FCF7DAFB03A88DF80C408DF8AD
S2140087A01040FDF743FD01A901208DF80440FDF7B8
S2140087B01DFD0D4A536A23F4FF6323F0070353623B
S2140087C040F2FF73136201209460FDF729FD074B0A
S2140087D04FF00052C3F880211A6006B010BD00BFEB
S2140087E094F40200A00914000020044000E100E018
S2140087F0014B9868704700BF0020044010B504463F
S2140088001FF05EF9124A9368516D9269520704D4BC
S214008810CA1A032A01D899420DD1E21A022A98BF31
S214008820DC1C0B4BB4F1FF3F38BF013C5C655A6A59
S21400883042F004025A621FF047F9064A137833B131
S21400884003490B6D43F002030B650023137010BD44
S21400885000200440901400208207054A00F001031F
S214008860516A48BF43F004030B435362704700BF8E
S21400887000200440820700F0010309D5074A0121C1
S214008880117007490A6D22F0030243F004030A65DB
S21400889003494A6A22EA03034B6270479014002099
S2140088A000200440830742BF014B0422DA61704770
S2140088B000200440064B01289B6904D0022805D1FD
S2140088C0C3F38000704703F0010070470020704734
S2140088D00020044010B51FF0FEF8094A93690446CC
S2140088E0590703F0010003F0070348BF40F00200F9
S2140088F01362FFF793FE2046BDE810401FF0F1B864
S214008900002004400148FCF759BC00BFA009140031
S2140089100A4BD3F8883003F00703013B012B10B550
S2140089200BD81FF0CDF8012104460220FFF7CEF940
S2140089302046BDE810401FF0C7B810BD00400E40EE
S2140089401F282DE9F341054604D82C46204602B0E0
S214008950BDE8F0810B4E0C4FDFF83080002400237A
S214008960CDF8008038681A46194622F095FF8442F2
S214008970EBD2202CE9D056F8043BAB42E6D00134CB
S214008980EDE700BF78F70200CC100020FFFF0F00D5
S2140089902DE9F04F644E654D3168286889B005F0C2
S2140089A0E3FC0446002827D033689A69D3E900011F
S2140089B01268904733689B6904A89B689847336899
S2140089C09B690220DB689847002432680598536844
S2140089D0B3FBF0F3E7B2BB42916904F101044DD852
S2140089E0CB680020984733689B695B689847316876
S2140089F0286805F0B9FC0446DFF84C914C4FDFF8C8
S214008A004C81DFF84CA10026F4B94A4B28689B5DE0
S214008A10002B00F08380D7F800B002AB03AA5946BB
S214008A2005F0E4FE504507D070B9039B012B0BD030
S214008A302868594605F01EFFD9F8003028681A68DD
S214008A40594605F003FE04460136202E09F10409B6
S214008A5007F1040708F10108D6D1374AB4FA84F3BF
S214008A605B0913702B681B7C23B134484FF48B7161
S214008A70FEF7D2FE204609B0BDE8F08F12680B69FB
S214008A8007FB00209847A0E73B6803AA194402ABFF
S214008A90019105F0ABFE5045019903462ED028689B
S214008AA02BB30BF1010B009B28685FFA8BF1994200
S214008AB0EAD3234B9B5D002BC6D0DDF800B02868B8
S214008AC05FFA8BF37E2BBFD8396802AB594403AAF2
S214008AD0009105F08BFE5045B6D00099286805F049
S214008AE0C9FE0BF1010B04460028E8D0ACE7039B57
S214008AF07BB998F80020029B9A42D2D098F80030B2
S214008B00D9F80020286805F009FD0028C9D00446D9
S214008B10CFE7019105F0AEFE0199EFE7094B9B5DAB
S214008B200093A346BFE700BFAC100020CC10002087
S214008B3078F7020056F702001E3E0020F8F7020003
S214008B4036F70200F6F60200A4F4020016F702005A
S214008B500BE000F0F8B50D4616461F46FFF7F0FE90
S214008B601F2804461CD8174B1B780BB3164B1868E7
S214008B70164B53F82410164B1B5D3BB1324605F0DE
S214008B80B1FD0446A0B11FF099FD12E07F2D08BF8D
S214008B9000253B46324651FA85F105F009FDF0E71F
S214008BA0FF2808D981B23B46EAB230461FF0FDFCEA
S214008BB000242046F8BD07484FF4A671FEF72CFEA9
S214008BC0F6E700BF1E3E0020CC10002078F702001B
S214008BD056F70200F8F70200F8B50D4616461F468F
S214008BE0FFF7AEFE1F2804461CD8164B1B7803B3AF
S214008BF0154B1868154B53F82410154B1B5D3BB1ED
S214008C00326805F023FD044698B11FF057FD11E0C9
S214008C107F2D08BF00253B46324651FA85F105F008
S214008C207DFCF0E7FF2807D93A46314680B21FF0B0
S214008C30C5FC00242046F8BD06484FF4C371FEF775
S214008C40EBFDF6E71E3E0020CC10002078F7020071
S214008C5056F70200F8F7020010B5FFF771FE0A4B50
S214008C601B7813B90024204610BD084B53F820107B
S214008C70074B0022186805F073FD04460028F1D063
S214008C801FF01CFDEFE700BF1E3E002078F7020035
S214008C90CC10002073B516461D46002B73D04BF241
S214008CA03463984210D1082D28BF082537492A4634
S214008CB0304621F0A6FF36492A46304622F018F8FC
S214008CC030B3002002B070BDC9B27F2980B208BFA1
S214008CD00021984218D17F2241F2020168460823FB
S214008CE01FF063FC2A490822684622F001F830B9D2
S214008CF008237F2241F2F01168461FF056FC6B46AF
S214008D0003CB30607160DCE741F2F01398421ED16D
S214008D10204B701ED3F8F010D3F8F4202C1F2B46EF
S214008D20013B9C4200F8011F4FEA11210CD1002C98
S214008D30C7D00423D9B20729F2544FEA1222C0D072
S214008D4001339D42F6D1BCE7002BE9D1B9E700F428
S214008D507043B3F5805F0AD1C0F30B0404F17E6460
S214008D602A4605FB0141304621F04BFFA9E700F4F7
S214008D706043B3F5005FA4D1C0F30B0404F17E6436
S214008D8004F58044ECE721209CE700BF0200E00FDA
S214008D90F2F802000081E00F2DE9F8431646C207FC
S214008DA004460F4604D52A4840F2D311FEF734FD98
S214008DB0F30704D526484FF4EA71FEF72DFD04F4B8
S214008DC07043B3F5805F24D1C4F30B04214A04F149
S214008DD07E64731E2344934215D82546DFF87090B0
S214008DE005EB0608A84529D156B172083946204633
S214008DF01FF07CFC20B116484FF40271FEF70CFD04
S214008E000020BDE8F883124840F2D911FEF704FDB1
S214008E10E3E704F46043B3F5005F06D1C4F30B0444
S214008E2004F17E6404F58044D7E709484FF4F071F6
S214008E30FEF7F2FC6FF00F050024CFE715F8013BB4
S214008E40FF2BCFD04FF4F5714846FEF7E5FCC9E797
S214008E5072F80200FF07E00F10B50446FBF78AFB26
S214008E600B4BA0F57A729A4210D84FF47A735C4393
S214008E70B0FBF3F0074BB3FBF0F3B4FBF3F00328BF
S214008E8004D9BDE810408008FBF722B910BD00BF2A
S214008E90FFC99A3B40420F00836970B513F0010684
S214008EA0044603F0020509D1EDB9C3695BB30EF0C1
S214008EB013F8E3692046BDE8704018471DB11B480B
S214008EC09B21FEF7A9FCA069C0F3810020F075FD88
S214008ED0E3691BB91548A321FEF79EFC20460DF05A
S214008EE0FBFF4DB916E0C3F3072020F078FDE369D9
S214008EF0B3B120460DF0F0FFE369607E9847BDE809
S214008F00704020F060BD0948A321FEF785FC20468E
S214008F100DF0E2FFE36920469847002EEFD170BDC2
S214008F200248A321FEF778FCE3E700BF02F902003F
S214008F3008B50EF07FF928B1BDE8084002483F2189
S214008F40FEF76ABC08BD00BF02F902002DE9F84F23
S214008F50FF2B9DF82870DFF868B0DFF868A004469D
S214008F60884691461D464FF0000612D1C0E900BA69
S214008F70C0E9066206618660C160FF2F07D0A3695C
S214008F8043F0020323F47F4343EA0723A361BDE8CB
S214008F90F88FFF2F03D00948BE21FEF73DFCAD0039
S214008FA045F00105EDB2C4E900BA2661A660C4F832
S214008FB01C90C4F80C80A561DFE700BF02F9020030
S214008FC044220020998E000010B5064C0460064C22
S214008FD0C2610023C0E9014303610123C1608361CC
S214008FE010BD00BF44220020998E0000826938B56B
S214008FF002F00203D20704460D4620D553B9FF29D6
S21400900021D1A36913F00C0F17D01148FC21FEF7ED
S21400901003FC12E00E48ED21FEF7FEFBFF2DF0D01C
S214009020284620F0BAF9FF28054603D10848F5215E
S214009030FEF7F2FB2DB204EB4514204638BDFF299F
S214009040FBD0002BECD10248F221FEF7E5FBE7E768
S21400905002F90200014823F0F8BE00BF44220020B7
S214009060014823F0FEBE00BF4422002008B5064893
S21400907023F0C0FE02F070FF21F04AFD21F05AFDF9
S214009080BDE8084021F059BD44220020022808B55A
S21400909003D11FF061FA014B186008BD742200204E
S2140090A008B505F061FF074B012018701FF096FB0E
S2140090B002201FF093FBBDE8084003490348FEF773
S2140090C07FBE00BF203E0020D8100020782200205F
S2140090D038B50E4B1C786CB9204638BD20F081F8A8
S2140090E004280FD020F07DF8054620F06CFC052DF6
S2140090F00AD0F1E7002020F060FC28B920F071F8D3
S2140091000228EBD120F05FFC0024E5E79114002054
S21400911008B5074B1B780BB1002008BDFFF7D8FF3A
S2140091200028F9D100F018FF023818BF0120F4E734
S2140091301F3E002070B50EF0E5F80446FFF7E8FF86
S21400914014F0070F204D0CD158B10EF0DBF810BB11
S2140091504FF0FF34FFF77EFF844228BF0446042CFE
S2140091601DD82B7823B901201FF038FB01232B7064
S2140091701FF042FB044628B32B781BB91348F9218D
S214009180FEF74AFB0EF026F80446FFF763FF84421C
S21400919028BF044616E00EF01DF80446DAE720461F
S2140091A01FF02CFB0028DCD02B785BB11EF088FC6F
S2140091B0002106460120FEF789FD30461EF084FC9D
S2140091C000232B70204670BD203E002089F9020047
S2140091D01FB5FFF7AFFF0446FFF7C6F9A04228BF4A
S2140091E0204688B103A9FFF7A1F9034638B9CDE9AF
S2140091F00000064A039906481FF0F9F918B1054819
S2140092009221FEF709FB012004B010BDDB870200A7
S2140092105422002089F9020010B5084C23681B6808
S214009220587920F0DEF823681B6858791FF0BFFDD8
S214009230002020F043FD012010BD00BFCC240020FC
S2140092402DE9F34102AB03E90600044690460DF013
S21400925029FF054620460DF035FF384F9DF8006083
S214009260374BFDB1202C98F8002033F8141037F84F
S214009270140008D9814253D34FF6FF7291421DD194
S21400928002B0BDE8F081012A32D802EB42122D4826
S21400929022444FF6FF7530F81210A94202D0013171
S2140092A020F8121033F8141037F81400814237D320
S2140092B04FF6FF7291424FF0010502D0013123F8BC
S2140092C0141004F0FD02092A2CD19A8AB98A324475
S2140092D08A42B4BF9A82998233F814308342CFD33D
S2140092E0002DCDD1204602B0BDE8F0411FF06FBD85
S2140092F0022AD7D1134A32F814104FF6FF70814273
S21400930004F121001CBF013122F8141032F81010AD
S2140093104FF6FF75A9421CBF013122F81010C1E7B5
S2140093200025CBE71D2CD7D15A8F91198142BDBF9E
S21400933002F1FF32B6185E875887CDE782370020E5
S214009340D4370020FE36002002485222002121F0A9
S214009350F9BC00BFD437002002485222FF2121F07A
S214009360F1BC00BF82370020034B1B681878012829
S21400937008BF0220704700BF0824002001480DF0F7
S21400938003B900BF2638002070B5094E094D0A4CB7
S214009390337821782A7802F01BFE002333702B7076
S2140093A02370BDE870400548FF211FF003BA00BFD8
S2140093B03D3E0020323E0020333E0020802200202A
S2140093C008B51048FF211FF0F5F90F4B1B7813F076
S2140093D020000CD000F05AFB24F007F90120FFF71C
S2140093E0D3FFBDE808404FF4806020F0A7BADB0644
S2140093F003D5BDE8084000F051BB0121B4201FF0A2
S21400940078FDECE7802200203D3E0020024A03481B
S2140094100021FFF7D9BD00BFC193000080220020C5
S21400942010B5184C2378DA0625D51E280ED06528E8
S2140094300CD0032820D143F020032370BDE8104051
S214009440114841F28832FF211FF0A3B923F0200310
S2140094502370FEF73BFB4FF4FA63B0FBF3F202FB1C
S2140094601300C21892B20848FF211FF092F9237821
S21400947023F01003237010BD24F0B7F8AE20FFF7DA
S21400948083FFF4E73D3E00208022002030B53B4CB1
S2140094902378DD1F012B8FB0EDB255D0042B53D0AF
S2140094A0032B41F6041252D0991F4B424B415B00EE
S2140094B013433348ADF80C301FF091FC48B9314BDC
S2140094C02F4A03F1100153F8040B42F8040B8B42A9
S2140094D0F9D12378032B3CD0062B3AD02A4B0DF13A
S2140094E00E0203F1100153F8040B42F8040B8B42F2
S2140094F0F9D103A817F054F9B72804460BD1012D6B
S2140095001FD8BDF80C3003A823F40053ADF80C3078
S21400951017F046F90446A4B9302017F01BF80446A5
S21400952078B900F005FB012D0BD8184A1068516871
S21400953001AB03C32246164901A821F015F8A0B1D5
S214009540182420460FB030BD43F60412ACE70223C1
S214009550AEE70B4A0DF10E0302F1100152F8040BB0
S21400956043F8040B8A42F9D1C3E70549224601A80D
S21400957020F0FAFF0028E3D1E3E700BF3D3E0020DD
S214009580223E00200FFA020020FA020031FA020002
S2140095903AFA02001FB50446202010F049FE1C22AD
S2140095A000210D4821F0CEFB0C4B1878FFF7DCFEAF
S2140095B0022814BF0123042303208DF8003023F073
S2140095C08DFC04238DF808306846054B0194039300
S2140095D000F0ECF904B010BDA02200203D3E0020B3
S2140095E08D97000008B50E490A78531CDBB2072B8E
S2140095F00B7001D0092B04D19420FFF7C5FE9420F0
S21400960008BD02F0FB02032A07D1064B18680028A3
S214009610F2D0FFF7BFFF3D20F2E70020F0E700BFE3
S2140096203D3E0020E010002070B5154C154E236816
S2140096303268134321D0144B1B68F3B1134D2B78BB
S214009640DBB91FF0CEFD90B94FF4806020F035F9FD
S214009650246844B101232B7000F018FA2046BDE8B8
S2140096607040FFF797BF042334682B70F4E7BDE81B
S21400967070400121B4201FF03CBC702070BD00BFBC
S214009680E4100020E0100020082400203D3E0020CA
S21400969070B5214D287838B120492148082221F09C
S2140096A027FB003818BF01201E4C261D07E01B496B
S2140096B01B48082221F01CFB003818BF0120227A24
S2140096C02368D340DB0700D558B1304610F07CFD48
S2140096D0E8B92B78002BEAD1227A2368D340DA0740
S2140096E0F3D5114B1878FFF73FFE012303220F49ED
S2140096F00FF0F4FF0E4A13780133137058B1BDE82B
S2140097007040FFF741BEBDE8704000F013B8FFF7A9
S21400971069FF0028F7D070BD3C3E0020343E002094
S214009720B2220020A02200203D3E0020A4220020DD
S214009730323E002008B5FFF7A9FE88B90F4B1B780C
S214009740032B12D89BB10E4B0E481B6840F8043B07
S21400975010F018FD68B1BDE808400120FFF714BE00
S214009760FFF740FF0028E6D008BD072BEBD0064BDE
S214009770EAE7BDE80840FFF78BBF00BF3D3E00208C
S214009780E4100020A0220020E010002010B5134CAA
S214009790237813B3838913F4407F1ED00368E3B99C
S2140097A010F040FD0E4B187018B1BDE81040FFF7E2
S2140097B0C1BF2378062B06D8032B06D9BDE8104078
S2140097C0AB20FFF7E1BD082BF8D004232370054B30
S2140097D0BDE810401868FFF7DDBE10BD3D3E002016
S2140097E0333E0020E010002030B5394D2B7887B08E
S2140097F004462BBB01A820F0D6FB022301A88DF857
S214009800043020F0BFFDB0B9324901A820F043FE75
S21400981088B1902C0FD1FEF759F947F23153B0FBBF
S214009820F3F202FB130000F51C50103080B200F07B
S21400983035F907B030BD912CFBD100F05BF9F8E7A5
S214009840902824D1032B11D0062B0FD0224B1B7847
S214009850DA070BD401A816F09FFE18B9BDF804303D
S2140098609B0703D42B7843F010032B70FEF72EF9DA
S2140098704FF4FA63B0FBF3F202FB1300C21817486A
S21400988092B2FF2107B0BDE830401EF082BF0DF057
S21400989097FC0028CDD12B78013B072B11D8104818
S2140098A010F092FC40B1FFF79DFE0028C1D107B032
S2140098B0BDE83040FFF73EBF07B0BDE83040FFF7D9
