S023000054595A53345F626F6F746C6F616465722D756172742D786D6F64656D2E73333719
S1130800081000209F2B00009D2B0000812C00006D
S11308109D2B00009D2B00009D2B00009D2B0000B4
S11308209D2B00009D2B0000943700009D2B0000A1
S11308309D2B0000443700009D2B00009D2B0000E1
S11308409D2B00009D2B00009D2B00009D2B000084
S11308509D2B00009D2B00009D2B00009D2B000074
S11308609D2B00009D2B00009D2B00009D2B000064
S11308709D2B00009D2B00009D2B00009D2B000054
S11308809D2B00009D2B00009D2B00009D2B000044
S11308909D2B00009D2B00009D2B00009D2B000034
S11308A09D2B00009D2B00009D2B00009D2B000024
S11308B09D2B00009D2B00009D2B00009D2B000014
S11308C09D2B00009D2B00000348044B834202D063
S11308D0034B03B1184770476810002068100020CC
S11308E0000000000548064B1B1AD90F01EBA301B9
S11308F0491002D0034B03B1184770476810002019
S1130900681000200000000010B5064C237843B99D
S1130910FFF7DAFF044B13B10448AFF3008001235F
S1130920237010BDB21000200000000054390000F4
S113093008B5054B1BB105490548AFF30080BDE878
S11309400840FFF7CFBF00BF000000006810002080
S113095054390000064B0748DA1C121AC11E22F053
S11309600302994288BF0022034902F049BE00BF36
S1130970681000200810002060390000064B07486A
S1130980DA1C121AC11E22F00302994288BF002207
S1130990002102F02DBE00BF381300206810002093
S11309A00D4B0E4A9A60D3F8882042F47002C3F8C3
S11309B088200B4B5A6D42F400525A651A6C22F08F
S11309C003021A645A6F22F001025A671A6E22F067
S11309D080521A66704700BF00ED00E00008000076
S11309E000300E40024A00231370024A137070470D
S11309F0B4100020B310002038B50378042B04464B
S1130A000D463FD009D8012B0BD0032B4FF0180310
S1130A103CD040F603102B7038BD182B36D0432B36
S1130A20F4E7224B4278197801BB012A03D015233D
S1130A3040F60410EFE71A70A3781344FF2BF6D1A5
S1130A4000228021E01C02F027FB94F88320C0F3ED
S1130A500F239A4221D194F88430C0B2834220D12A
S1130A60134B62781A7000200623D4E7104B1B78CE
S1130A7093420ED00133DBB29342DDD0152340F60E
S1130A800510C8E7062340F60710C4E740F608102F
S1130A90C1E7062340F60610BDE7152340F6021011
S1130AA0B9E7152340F60110B5E700BFB3100020E5
S1130AB0B41000200149024800F03AB86036000042
S1130AC08010002010B592B018494722684602F001
S1130AD097FD02F0BFF8C0F30363092B8CBF3733D3
S1130AE030330A228DF81430C0F30343B3FBF2F120
S1130AF002FB1133303300F00F008DF81730B0FBD8
S1130B00F2F302FB130001F13004303003F1300141
S1130B108DF819108DF81A000122472168468DF8C6
S1130B20164000F0ADFC002012B010BD703600007D
S1130B302DE9F04F0024F9B094220646884653A8C4
S1130B4021468DF80F4002F053FD2146482205A8A6
S1130B5002F04EFD2146682217A802F049FD00F07C
S1130B606FFBDFF81093DFF810A3DFF810B33C2716
S1130B7001254FF0FF346B1E052B09D8DFE813F075
S1130B800C001E0041005B005401C0000425F2E784
S1130B90FFF798FF0125EEE74FF47A7104A802F0FD
S1130BA043F938B99DF81030312B05D0322B0CBFE6
S1130BB0052500253C27DEE70225FBE7012211215C
S1130BC0A94800F05DFC28220021304602F010FD07
S1130BD0202317AA05A953A802F023FA0025FF230E
S1130BE0737001210520758000F058FB00F094FC1F
S1130BF018B10121284600F005FDFFF7F3FE032597
S1130C00B9E7432001F0DBFF00214FF47A7000F0D4
S1130C1045FB00F081FC18B900F064FB0028F8D013
S1130C2000F07AFC0028B1D1013FA4D1182001F0D2
S1130C30C6FF00259FE7002185220DF1C50002F0C3
S1130C40D7FC002140F6B83000F028FB00F064FC2B
S1130C5088B34FF47A7300930123194604AA0DF163
S1130C60C50000F07DFC9DF8C530012B0DD140F688
S1130C70B8320092842104AA0DF1C60000F070FC81
S1130C80049B842B04461AD1D8B90DF10F010DF140
S1130C90C500FFF7B1FE40F60713984204461AD187
S1130CA0B378A3B1F37893B106259DF80F00182803
S1130CB008BF062508E000F015FB0028C6D040F266
S1130CC0047415208DF80F0001F079FF53E7182301
S1130CD08DF80F30E8E70028E7D19DF8C530012BE7
S1130CE0E3D1CDF80080802332AA314653A800F026
S1130CF07BFD04460028D8D018238DF80F30D4E7A4
S1130D000121002000F07EFC01210A2000F0C6FA37
S1130D109DF80F30062B4FF0010208D140F607135F
S1130D209C4204D151481B2100F0AAFB81E71A21FF
S1130D30504600F0A5FBA4F51063B3F5E06F4FF047
S1130D40010213D24A48112100F09AFB40F606131F
S1130D509C4213DCB4F5106F10D0A4F60213042BDC
S1130D604ED8DFE803F04F474B515300102158464B
S1130D7000F086FB40F606139C421ADC9DF80F3007
S1130D809F2B4FEA13108CBF3730303000F0B0FB8C
S1130D909DF80F0000F00F0009288CBF3730303069
S1130DA000F0A6FB0D2000F0A3FB0A2000F0A0FB3E
S1130DB03FE7A4F58053013B092BDFD8A4F580530A
S1130DC0013B092BDAD801A252F823F0210E0000CE
S1130DD07D0D00007D0D0000250E0000150E0000A5
S1130DE01D0E0000210E0000190E0000110E00005F
S1130DF0210E000021238DF80F30BFE72223FAE7EC
S1130E002323F8E72423F6E72523F4E72723F2E74F
S1130E104123F0E74323EEE74423ECE74523EAE7E5
S1130E204F23E8E75023E6E7B378BBB1F378ABB1DF
S1130E3033789B070DD5756801F00CFF854204D902
S1130E40716A4FF4004000F0DBF801221321484698
S1130E506AE740F2012000F0BFF9F6E740F2032010
S1130E6000F0BAF9E5E600BF2037000005370000BE
S1130E70DA360000B7360000EB360000CA36000050
S1130E80002337B59B6A14461A68134B9A420D46E1
S1130E9020D100F5004310F5004F01931AD2019BB5
S1130EA0B3F5802F16D2019BC3F58023A34211D33F
S1130EB040B9D0F828385A69B2F5004F02D91869F8
S1130EC001F068FF01982246294603B0BDE830408E
S1130ED001F086BE03B030BDAD1007B0F0B5421EC0
S1130EE0D11C85B0034618D80D4C6E4604F110078A
S1130EF020686168354603C50834BC422E46F7D1E4
S1130F0004A90F3311F8014D12F8010F844204D1E2
S1130F109A42F7D1012005B0F0BD0020FBE700BFE5
S1130F2031370000F0B5036803F16043B3F5F84FBF
S1130F3004469FB04FF000002AD8D0F828286368F0
S1130F4016699E4224D8B3F5802F21D8656B06F12B
S1130F504003AB4250D8B5F5802F4DD82846FFF753
S1130F60BDFF002848D0284601F06DFE80B16F69AE
S1130F7077B1022F0ED1AB69C4F1040119444FF0CB
S1130F80FF32204600F0FCFE1C4BC31A5842584165
S1130F901FB0F0BD40F2046328460393FFF79EFFA1
S1130FA00028F5D0012F25D1AD69AE4222D8AC423C
S1130FB020D8B5F5802F1DD804A802F0ABF82A1B61
S1130FC0214604A802F0B0F804A802F0AFF800F03B
S1130FD031FF044600F032FF2346009005F1200261
S1130FE0294604A800F0E6FE03900398B0FA80F0C6
S1130FF04009CDE70020CBE70120C9E7E320BBDEB1
S113100008B54FF0FF3200F0BBFE044B984203D109
S113101040F2092000F0E0F8002008BDE320BBDE28
S1131020314B13B501225A6401F098FD044601A81E
S113103001F076FD8E2C1CD82C49D1F8B00040F07C
S11310400403C1F8B0302A4B4FF050121A601A63EF
S11310501A66C3F89020C3F8C020C3F8F020C1F882
S1131060B000224AD36A23F07F0343F02003D36203
S113107001E08F2CF5D09DF80530012B01BF1D4AEE
S1131080D2F8643143F00403C2F864311A4B0022ED
S1131090C3F8B42A01F0E6FD00F07CF801F08AFD03
S11310A001F08AFD18B14FF4017000F095F8FFF7D4
S11310B001FD044601F082FD1CB140F203739C4221
S11310C006D140F2012000F087F84FF4017005E0EA
S11310D0A4F20574012CF8D840F2032000F07CF847
S11310E0002002B010BD00BF00000E4000400E40C2
S11310F000A0004000300E400000C64307B50123A5
S11311008DF806308DF80730204B5B685A050AD5F8
S113111000F080F8A0F2022080B2072803D8C92387
S1131120C340DB0702D400F0D1FA20B100238DF8CC
S113113006308DF807304FF480435B68013308D1E3
S11311404FF4027000F03CF800238DF806308DF85F
S113115007309DF8073063B14FF48040FFF7E2FE9B
S11311608DF806009DF806301BB94FF4027000F0AC
S113117027F89DF806302BB1054B4FF4804098605A
S113118001F074FD03B05DF804FB00BF00500E4095
S113119000ED00E0024B4CF23C325A80704700BF35
S11311A000000020054B5B8823F00F034AF6C03093
S11311B09BB21B1A58425841704700BF00000020E0
S11311C0044A08B51080FFF7EDFF10B94FF20F0382
S11311D0538008BD0000002008B5FFF7F1FF0A4A5C
S11311E0136823F4E06343F400731360BFF34F8F79
S11311F00649074BCA6802F4E0621343CB60BFF3AD
S11312004F8F00BFFDE700BF00500E4000ED00E02F
S11312100400FA05094B5A884FF20F018A4201D1A2
S1131220188870473AB91B88012B40F2022018BF76
S11312304FF4007070474FF40070704700000020B6
S11312401FB5134B1A6842F480121A60D3F8C020F9
S113125042F00102C3F8C02000F0F4F94FF47A23FD
S1131260B0FBF3F00B4B0D22186000210DF10100CF
S113127002F0BEF901238DF8003007480A236946BD
S11312808DF8023002F099F805B05DF804FB00BF58
S113129000400E40A81000200080014030B50D4DE4
S11312A00D4A2D68536A15FB00F59CB215FA83F0BC
S11312B00A4B80B21880A042094B2CBF00240124A1
S11312C01C7011B1536A8342FCD1012353619361B1
S11312D030BD00BFA810002000800140B0100020E5
S11312E0B5100020094B0A4AD868127800F00100B2
S11312F00AB108B9704738B9586A064B1B88984236
S113130034BF002001207047012070470080014055
S1131310B5100020B0100020F8B5454E454A33689A
S1131320454D464803F1340191601C3301216B6043
S11313306B6201F0B7FA4248012101F0B3FA0121CE
S11313404FF48A4001F0AEFA7068012101F0AAFA64
S113135033683C4940F6AA620024DA6041F205028F
S11313601C605C665A609C605C61DC6499645C67C8
S11313709C67DC675A601A681A6000F063F900F52C
S1131380E1434FF4E1125B01B3FBF2F32E4A203B3D
S113139002EAC30332682146536120460123042232
S11313A001F0C6FA01231A461946204601F0C0FA94
S11313B03368042203279C6711465F672046012394
S11313C001F0B6FA01231A460521204601F0B0FACD
S11313D0336841F60172DA675A6F42F030025A6795
S11313E05A6E42F004025A660522DA60174B4FF037
S11313F0E0621A604FF440221C62DC625C63DC66CB
S1131400C3F880200132C3F88840C3F88440C3F88D
S11314109850C3F8B0200E4AC3F8B840C3F8B4409B
S113142097620122DA6303F1C06302229A60F8BD75
S113143058100020481000200810002040410500EA
S113144000250A00F9FF0100F8FF7F0000200E408C
S113145000200E44084B986A10F0020006D003F1F5
S1131460806302221A629A62012070471B6A9B07FA
S1131470FBD4024B0222F6E700200E4000200E446B
S11314807F2938B50446154624D8FFF7E3FF20B377
S1131490134B2046621890420DD1124B1A88013921
S11314A061F30E121A80104AC2F8C8300223D363C3
S11314B035B9002038BD10F8014B03F8014BEAE7B9
S11314C0FFF7C8FF0028FBD0084B1A6813699B0676
S11314D0FCD5EEE741F20310ECE741F20620E9E720
S11314E0B61000204810002000200E4058100020A4
S11314F008B50146FFF7AEFF0028FBD0054B1B687B
S11315001A695006FCD559631A699206FCD5002065
S113151008BD00BF581000200E4B0F4AD3F894307A
S1131520106840F20112934205D190B10023C0F536
S113153000701844704740F20222934216BF074AD3
S11315404FF480739B1A984202D0F0D2181A704755
S11315500020704700200E40AC10002036110020FF
S11315602DE9F047089D04460E461746E3B9FFF7F8
S1131570D3FFB04228BF30461F4ADFF884C01F495A
S11315800546234620184FF0010E4FF000084FF097
S1131590020983421AD107B13D6041F20420AE42F0
S11315A098BF0020BDE8F0872DB1FFF749FE002168
S11315B02846FFF773FEFFF7AFFFB042D7D2002DE6
S11315C0F9D0FFF78FFE0028F5D0D0E714681CF897
S11315D004A003F801AB0134B4F5007F146004D116
S11315E0C2F80080C1F80890D3E7B4F5807F08BF43
S11315F0C1F808E0CDE700BFAC10002000200E4683
S11316003611002010B10B4B02221A6279B1094A3B
S1131610094901231362936202F17C420020C2F85B
S1131620981006490860D363054B02229A60002093
S1131630704700BF00200E4408100020AC100020AA
S113164000200E4630B51B4B87B001AA03F11005EC
S113165018685968144603C40833AB422246F7D1CC
S11316601B78154A2370D2F8943003F00703022B39
S11316701BD01369C3F30443102B18D818336B44DD
S11316800E4913F8143C4B430D498B4203D11269A4
S1131690C2F34162D340084AD2F80001C0F30420E7
S11316A00130B3FBF0F007B030BD064BF3E7064B57
S11316B0F1E700BFDC37000000400E4040420F005D
S11316C000093D0000F04902C0EA21011C4AD2F899
S11316D0B03043F0040313B5C2F8B0300123184608
S11316E004220B2101F024F900230093009B632BB7
S11316F020DD0123184602220B2101F019F90023F1
S11317000193019BB3F5FA7F17DB0E4BD3F8AC4979
S11317100123184600220B2101F00AF9084AD2F8E5
S1131720B030601E23F0040318BF0120C2F8B030AB
S113173002B010BD009B0133D7E7019B0133DFE703
S113174000400E4000001442074930B50246002311
S11317500C2505FB03F460180C59944203D00133A3
S11317600A2BF6D1002030BDF0370000F0B587B069
S113177000230827CDE9013315463B46009704AA08
S1131780044601F07CFB41F203039842064623D150
S113179094F8433053B1E06C3A4604A901F0C4FC18
S11317A004AAA06C3B46114601F0A3FC059A6A60AA
S11317B094F84320049B2B6052B9094A934207D002
S11317C0084A934204D0E06C082204A901F0ACFC5E
S11317D06B68236500236365304607B0F0BD00BF26
S11317E0F70A0AF7FC0404FC2DE9F04FA7B0CDE991
S11317F013239846309F002304460E4615934FF05A
S11318000109159A424501D30020C4E094F84630FA
S1131810102BF7D8DFE813F05A00A700A10042000C
S113182029000F01880129008001290080013A0262
S1131830AF02110005010402AD020025636D0F2BF8
S113184000F28F801023009316AA4023CDE901955E
S113185013A9204601F013FB0B900B9A41F20303EA
S11318609A4200F0D0800B9B3CE04FF0010AD4E98F
S113187014539D4275D9ED1ADDE914329B1A94F87C
S11318804020032D134440F25981032B00F26D8153
S113189013A9204601F0D2FA002323E0A44D636D7E
S11318A0072B00F2D5800823009316AA4023CDE924
S11318B0019913A9204601F0E2FA0D900D9A41F224
S11318C003039A4200F0EE800D9B0BE016AA13A9C5
S11318D02046FFF74BFF0890089B41F20302934216
S11318E007D0089B0793079A41F203039A4288D0D2
S11318F050E0179A22650022169962658D4A91423A
S113190040F0E280022284F84620EBE708230093AB
S113191016AA4023CDE9019513A9204601F0AFFA98
S11319200990099A41F203039A4201D0099BD9E72D
S1131930169B03F07F43B3F1407F05D0102384F856
S1131940463041F20903CDE7179BD90706D594F831
S1131950423043F0010384F842300025636D072BC5
S1131960D4D90123DDE016AA13A92046FFF7FEFE11
S11319700A900A9D41F203039D420FD00A9D0795E8
S1131980079A41F203039A423FF43BAF079B0BB122
S11319900023F370079827B0BDE8F08F1698FFF77F
S11319A0D3FE28B9102384F8463041F20805E6E74F
S11319B0437994F890209A4205D9102384F846304C
S11319C041F20E05DBE702685B498A4205D00289D1
S11319D0D20748BF013384F8903094F84230D907D5
S11319E00DD5028994F84330920706D53BB11023F4
S11319F084F8463041F20105C1E7002BF7D00379A2
S1131A0084F84630BBE7D4F848A000F01BFA8023E2
S1131A10CDE9000317AA01230221504601F049FB36
S1131A200CE7226DA2650123002284F84330E265AD
S1131A3084F84630E5E600213C2217A8169101F00F
S1131A40D7FD0125D4E91432934204D884F84650D2
S1131A5041F2030346E7009316AA4023CDE901555A
S1131A6013A9204601F00BFA0C900C9A41F20303DF
S1131A709A4201D00C9B35E70DF1580C06F108038E
S1131A800DF1700E624603CA72451860596094469F
S1131A9003F10803F6D110681860337843F00103AA
S1131AA03370CFE73378179943F002033370169BF2
S1131AB07360236D0022083B7362936A1868A8421E
S1131AC005D1DB688B4205D0102384F8463041F2FF
S1131AD0010307E7042384F8463094F8453062662E
S1131AE043F0010384F84530D9E60423009316AA91
S1131AF04023CDE9015513A9204601F0C0F90E9009
S1131B000E9A41F203039A4201D00E9BEAE6226D3B
S1131B10169B042A01D923660125636D032BE4D99E
S1131B20092384F8463093E70023636607237FE79D
S1131B30AD1007B0EB17A603F90707F99D423FF66E
S1131B40A7AE9D4228BF1D46402316AACDE901AA8F
S1131B50009513A9204601F092F90F900F9A41F2D3
S1131B6003039A420AD00F9BBCE6402D28BF4025B0
S1131B709D4228BF1D4625F00305E5E794F846304D
S1131B80072B1CD0042DC5F1040B059388BF4FF01F
S1131B90000B16AB5A465819FF2101F029FD059B8D
S1131BA0092BAB4419D13B465A4616A9204601F0ED
S1131BB0E7F90F900F9B002B3FF459AED3E7D7F80A
S1131BC008B0BBF1000FDDD03B68606E2A4616A951
S1131BD0D847636E2B44636649E6042B7FF447AE13
S1131BE0737899077FF543AEFB68002B3FF43FAE53
S1131BF0626E042A0BD80BEB0203062B07D917AB32
S1131C009B1A1A68C4F884204FF0FF321A603B68AC
S1131C10FD68606E5A4616A9A847636E5B44DAE70E
S1131C2094F84450002D7FF49CAE4023009316AAF0
S1131C30CDE9015513A9204601F021F91090109A1D
S1131C4041F203039A4201D0109B4BE6E06C01F091
S1131C506DFAD4F84CA000F0EDF8834600F0EEF8ED
S1131C605B4600901EAA16A9504600F0A3F81090F7
S1131C70109B33B11023F57084F8463041F206030B
S1131C8030E60123F37084F844306AE600234FF011
S1131C900408CDE9013316AA4023CDF8008013A926
S1131CA0204601F0ECF81190119A41F203039A4294
S1131CB002D0119B07936DE6D4F888202F4B9A42EB
S1131CC005D0102384F8463041F20503F2E70123DE
S1131CD0F37094F84530DA0707D5FD682DB13B68F9
S1131CE0424604F184014046A84794F845309B07D6
S1131CF007D5FD682DB104223B6804F18401104628
S1131D00A847236E73B37D6865B304F180084FF070
S1131D10FF330422414612A8129301F059FC28B162
S1131D203B680422414648F20400A84704F16809CC
S1131D300422494612A801F04BFC98B10023142256
S1131D40D3F82838D3F8108004F16C01D7E90035B2
S1131D5008F10800A8470422D7E90035494608EBF2
S1131D600200A8470123B3700C2384F846300023F3
S1131D70A0E70023F37041F207000CE6E320BBDE8A
S1131D8010B50A4CD4F8B03043F02003C4F8B03096
S1131D90074B01241C6001449A605C60884201D1B5
S1131DA0D86910BD10F8012B9A61F7E700400E4086
S1131DB000C001402DE9F041A2B00E46DDF8A0803C
S1131DC015461F46044670B369B362B35BB3B8F1FA
S1131DD0000F28D01548012100F064FD40220021A5
S1131DE002A801F005FC394602A801F0B1F912AFCE
S1131DF041460AA801F0ACF940220021384601F01E
S1131E00F7FB3146384601F0A3F929461AA801F038
S1131E109FF90748009702AB2022214600F0BAFA46
S1131E2022B0BDE8F08140F20160F9E700150A0034
S1131E3000000F40004870474A43E00F00487047D5
S1131E406A43E00F004870478642E00F2DE9F041F5
S1131E5004461D460F46904600211C22181D01F021
S1131E60C7FB01232B6001F0A1F94146064604F5A6
S1131E70807001F008FA394604F5827004F584771D
S1131E8001F001FA2946384601F0FDF9304601F027
S1131E9091F90D4E0D4B0E4A0E490F4823656369A7
S1131EA0DB010BD501F082F929460446384601F0DE
S1131EB0F2F92046BDE8F04101F07CB92265616584
S1131EC0A065E665EBE700BF3938010039398401C4
S1131ED0D02484FC1C82FED88B1C81A02DE9F04FF9
S1131EE08DB0044617460D461E4601F05FF904F511
S1131EF0827805F1400B81465946404601F0C3F90A
S1131F0004F58673184604F5887A3946039301F07C
S1131F10BAF907F12001504601F0B5F9484601F03D
S1131F2049F9414A2265414A62650127404AA2654E
S1131F30E76501F03BF929460190404601F0A3F919
S1131F4004F5847905F1200211464846029201F015
S1131F509AF95946504601F096F9019801F02AF988
S1131F603449216534496165A76501F01FF904F519
S1131F70807B824606F14001584601F08CF904A9A1
S1131F80484601F088F9504601F014F901F00EF9C1
S1131F90039B29468246184601F075F9504601F024
S1131FA009F9264B2365264B63656FF42672A3F566
S1131FB0FE231344A365E76501F0F8F8029A054689
S1131FC01146404601F05FF9284601F0F3F81D4B35
S1131FD023651D4B6365A76501F0E8F831460546A6
S1131FE0484601F058F9284601F0E4F801F0DEF81B
S1131FF004A90546404601F046F9284601F0DAF8FE
S1132000124B2365124B6365A76501F0CFF806F107
S113201020010446584601F03EF9204601F0CAF872
S11320200DB0BDE8F08F00BF8AD11C81D91C83D1CB
S11320301C81E11CD01482CB1481E11C8CE11C8135
S11320401C84D91CE014D8141482E11C84D3148297
S1132050D11CE0142DE9F041044690B00F46244E03
S11320600521904601F084F9002323602363636310
S11320700FCE08AD0FC596E80F0085E80F0008AA3B
S11320806B4607F140012046FFF7E0FE01F08EF8B1
S113209004F586760546694604F5827001F0F3F886
S11320A03946304601F0EFF807F1200104F5887055
S11320B001F0E9F8284601F07DF80E4B23650E4B3C
S11320C063650E4BA3650123E36501F06FF808F126
S11320D02001054604F5807001F0DDF841463046E4
S11320E001F0D9F8284601F065F810B0BDE8F08198
S11320F0743800008AD11C81D91C83D11C81E11C55
S11321002DE9F04FA5B01D460446CDE9021205A8FD
S11321101C22002101F06CFA4FF00108202200215A
S1132120284605F12007CDF8108001F061FA20223D
S11321300021384601F05CFA05F1400318462022DC
S11321400021009301F054FA0521204601F010F912
S11321500023236023636363039BDB69002B4FF03D
S1132160FF060BDB013E09D00399721106F01F0331
S113217051F8222008FA03F31342F3D001F016F8C1
S113218004F58273394680461846019301F07BF8C2
S1132190404601F00FF8734B2365734B6365734B33
S11321A0A36501F003F804F5807914A98046484634
S11321B001F071F8404600F0FDFF00F0F7FF2946FA
S11321C08046484601F05FF8404600F0F3FF684B54
S11321D02365684B63654FF48673A36500F0E6FFDF
S11321E004F5867882460CA9404601F054F81CA9EF
S11321F0484601F050F8504600F0DCFF00F0D6FFEE
S11322008246DDE9001001F03EF8504600F0D2FFAE
S1132210594B23650123636500F0C8FF04F5847AF4
S113222029468346504601F02EF8584600F0C2FF76
S1132230524A226502F1D94202F5DE1202F5956294
S11322406265A2F586120123A2F2BA42A265E36591
S113225000F0ACFF1CA98346504601F014F80CA909
S1132260404601F010F8584600F0A4FF444A2265A5
S1132270444A6265444AA26500F098FF29468346B1
S113228004F5887001F007F8584600F093FF00F059
S11322908DFF39468346019800F0F5FF50460099BA
S11322A000F0F1FF14A9404600F0EDFF584600F09D
S11322B081FF364A2265364A626500F077FF00994D
S11322C08246484600F0E7FF3946404600F0E3FF07
S11322D0504600F06FFF06F01F0101238B4072117E
S11322E0039951F82220134211D0284600F021FF0F
S11322F038B1384600F01DFF18B1009800F019FFFE
S113230058B9029A2B4629462046FFF7E7FD013EBD
S1132310BFF434AF25B0BDE8F08F029BAC4603F1A7
S1132320200E18685968624603C208337345944600
S1132330F7D1BC4603F1200E18685968624603C2FF
S1132340083373459446F7D10DF1100EBEE80F0023
S113235005F1400CACE80F009EE80F008CE80F007C
S1132360D5E700BF8AD11C81821CC00C0C0C010073
S1132370C00C0C83D91C83D88AD11C83DA0C811439
S11323808CE11CD01484E31482D11C01D81483D1B1
S11323901CC00C012DE9F04FBBB00F4604460021D0
S11323A015460AA86022449E9A4601F021F960224B
S11323B0002122A801F01CF9002F00F01981BAF1C4
S11323C0000F00F01581002E00F01281002D40F363
S11323D00F810023236023636363636843F0100366
S11323E063600C21204600F0C3FF6368DFF820E23D
S11323F023F4406343F400636360636823F440732D
S113240043F400736360BEE80F000DF1A80CACE860
S11324100F009EE80F008CE80F0000F0C7FE04F5E3
S1132420847983463146484604F5867800F02BFFCC
S11324302AA9404600F027FF584600F0BBFE6E4A2A
S11324402265012363656369DA0104D440F2026002
S11324503BB0BDE8F08F311F082351F8040F00286A
S113246000F0BE8000F0A2FE06F1200B0190594658
S1132470484600F008FF2AA9404600F004FF0198EE
S113248000F098FE01235C4A226563656369DB0101
S1132490DCD506F11C02082352F8041F002900F0C1
S11324A0A3802022002132A801F0A2F8202DA8BF89
S11324B02025013D013F25F0030303F594736B448C
S11324C005F0030117F8012FC9008A4053F8601C76
S11324D0013D42EA010243F8602CECD200F066FEB2
S11324E032A90546484600F0CEFE284600F062FEBA
S11324F0424B236500F05AFE04F58077054632A965
S1132500384600F0C8FE284600F054FE2AAA02AB62
S113251059462046FFF79AFC00F048FE04F5887BF4
S1132520054602A904F5827000F0ADFE32A95846B2
S113253000F0A9FE3146404600F0A5FE284600F012
S113254039FE2F4B236503F1FA43A3F5006363655A
S113255000F02CFE32A90546584600F09CFE02A964
S1132560384600F098FE284600F024FE25490AABC0
S113257032AA2046FFF7C4FD22AB02AA51462046E8
S1132580FFF7BEFD0AAA11462046FFF763FD22AB02
S113259019460AAA2046FFF7A1FC22AA11462046A2
S11325A0FFF758FD00F002FE0C210546204600F01E
S11325B0DFFE22A9484600F066FE3146404600F0A0
S11325C062FE284600F0F6FD0F4B23650F4B636552
S11325D0636913F0807F40F2046018BF002037E77E
S11325E0013B7FF43AAF31E7013B7FF455AF2DE770
S11325F040F201602CE700BF3035DA1030D00C0116
S113260030E11C84B43800003035DA143938010064
S1132610943800002DE9F34714460D46DDE90A928B
S11326201F4600284DD14CB313683F2B2AD851685C
S113263051B32549002F14BFB846884603F03F061E
S11326401B19136022BF536801335360FEB93F2C3A
S11326500ED9A30900932A463B464146002000F0C8
S113266083F824F03F031D4404F03F0434B10026F2
S11326702246294609EB060000F0C2FF002002B002
S1132680BDE8F087B846D9E7DFF83C80D6E7C6F165
S1132690400A5445ECD32946524609EB060000F0A3
S11326A0AFFF2644012300934A463B46414600209F
S11326B0A6F1400400F058F83F2C5544D6D9B8464A
S11326C0C7E70248DBE700BF3439000080AFFFFFF3
S11326D02DE9F041146886B01E46E3008DF80F30F2
S11326E063098DF80E30630B8DF80D30630D8DF892
S11326F00C3053681746DA0002EB54728DF80B2045
S113270004F03F045A09372C8DF80A204FEA53325B
S11327104FEA535305468DF80920CDE9001794BFBD
S1132720C4F13802C4F1780288468DF808300D49A6
S113273003460020FFF76EFF08222B46CDE90087F1
S11327400DEB02010020FFF765FF284605F1200389
S113275050F8042B46F8042B9842F9D1002006B017
S1132760BDE8F081F43800002DE9F04F99B005463A
S1132770884692461E4600F0F9F90446002D7ED1A3
S1132780042303604560C5644368694623F44063D9
S11327904360A8F10402056308F11C0345638846FD
S11327A052F8040F00BA9A4241F8040BF8D100F031
S11327B0FDFC4146054604F5827000F064FD2846A0
S11327C000F0F8FC2F4B23654FF000090AF00307D3
S11327D0229B994527D1B30704F5807744D000F0B4
S11327E0E5FC41460546384600F055FD284600F014
S11327F0E1FC08AD3246434603CBAB421060516066
S1132800984602F10802F6D1204600F0B9F9331FC8
S11328101C3653F8042F12BAB3421A60F9D10020BF
S113282019B0BDE8F08F0AEB89156FB10DF1200ED8
S113283005F1400B28686968F446ACE803000835E4
S11328405D45E646F6D108AD00F0B0FC2946834666
S113285004F5D27000F027FD584600F0ABFC0A4A9C
S1132860226509F10109B3E700F0A0FC31460546F1
S1132870384600F010FD284600F09CFCC4E76FF0D9
S11328807100CDE7888AC801070D8101044BD3F894
S11328904421D20703D4D3F840211042FBD170471E
S11328A000400E4038B5C0F30323013B092B11D877
S11328B0DFE803F0052710102B221D101511154D0C
S11328C0C0F3043405F1424505F5801504EBC50059
S11328D08000016038BD104DC0F30434F2E70F4DA1
S11328E0C0F304344FF48030FFF7D0FFEAE7C0F3BD
S11328F004340B4D1020F7E7C0F30434094D0120D4
S1132900F2E7094DC0F30434DCE7084DC0F30434A6
S1132910D8E700BF00400E4050410E40F0400E404A
S1132920E8400E40E0400E40C0400E40B0400E4033
S113293000EB4000F8B50D461F46040116463AB1B7
S1132940154801238B402044C7B100F1C0600360E7
S1132950072D4FF00F0114D8AB00104806FA03F20C
S11329609940204400F01AFD3EB90B4A0123AB40C4
S1132970224477B102F1C0621360F8BD00F18060B7
S1132980E5E7A5F108039B00054806FA03F2994020
S1132990E7E702F18062EFE70CA0004004A00040EA
S11329A008A00040214B41F671311A6C19649968F2
S11329B041F00101996001211861D960D969490781
S11329C092B209D5996821F0010199600AB10022F7
S11329D01A644FF0FF3070470221D9601449D86956
S11329E0C00700D569B9D86910F002000BD0996806
S11329F021F0010199600AB100221A646FF001000C
S1132A0070470139EBE741B9986820F001009860FC
S1132A1002B119646FF002007047996821F0010156
S1132A2099600AB9002070471864FBE700000E4063
S1132A30809698002DE9F04F02F16044B4F5F84F08
S1132A4003D94FF0FF30BDE8F08FDFF8C8C0DFF8DE
S1132A50C890DFF8C880302606FB00C64FF4401447
S1132A60C6F880400024C6F88440C6F88840C6F8FA
S1132A709840264C41F67135D4F840A02564A568E9
S1132A804FF0010E45F00105A5600EFA00F053B9B0
S1132A900422E260A26822F00102A2601FFA8AF214
S1132AA08ABB0020CFE701F50065216105EA09052D
S1132AB0C4F80CE06D1AD4F81CB09D4228BF1D4622
S1132AC01BF0040F4FEA9507BBD1013F3F0147F0CC
S1132AD06057C6F88C700E4FC6F89020C6F89470F4
S1132AE0DCF820700743CCF820701027E760DCF88E
S1132AF028703842FBD0C8F828002944C8F82000C0
S1132B002A445B1BC3E72364CBE700BF00000E40ED
S1132B1018000E4000200E4000F8FFFF00200E4475
S1132B200D4AD2F8E430D2F8E0109B0003F03C03E5
S1132B30C1F381110B438370D2F8E03003F03F03FB
S1132B404370D2F8E830D2F8EC2003F0F003C2F37B
S1132B50031213430370704700FF0FE0024BD3F8D6
S1132B60FC00000E704700BF0081E00F024B0348D9
S1132B700122C3F8042670470010C84300000F4028
S1132B80054B984201BF03F16E7303F588330022AD
S1132B90C3F80426704700BF00000F40FEE708B5E5
S1132BA0FDF7FEFEFEF7AAFAFDF7D4FEFDF7E6FEFA
S1132BB0FEF736FA00F012B8FDF784BF704710B57F
S1132BC00446FEF795FC182C07D12046FEF790FC2E
S1132BD02046BDE81040FEF78BBC10BDFEF79CBB41
S1132BE0C0F30A032DE9F04105460F4616460BB91A
S1132BF000F0D0F805F5006424F4FF6424F0070421
S1132C0005EB0608A04507D8324639462846022374
S1132C10BDE8F04100F0C5B8204600F0BBF804F56B
S1132C200064EFE770B400250346D5F828582E69F0
S1132C30864206D86C6913449C4202D370BCFFF7E9
S1132C40CFBF70BC7047036913F0FE0F0CBF0120A7
S1132C50002070470023D3F82838986870474FF451
S1132C600040704700207047002070470346184614
S1132C70016881F3088881F3098840688746FEE784
S1132C804FF40170FEF7A8BAB1F5BE7F10B5044643
S1132C900FD34FF4BE72002100F0AAFC04F5827237
S1132CA004F1BC0104F128000023BDE8104000F049
S1132CB0B8B940F2052010BD13B504460091014691
S1132CC02830FEF791FDC4F8780118B141F20703EA
S1132CD0984204D1A37823B1E07800F2022002B034
S1132CE010BD40F20120FAE72DE9F04387B00DF161
S1132CF008090446DDF838800E46174600211022E4
S1132D0048461D4600F074FC0021C8F800101C223F
S1132D10284600F06DFC32463B46CDF80090214633
S1132D2004F12800FEF760FD23789A0744BF626827
S1132D30C8F80020DB0709D504F1080304F12402D4
S1132D4053F8041B45F8041B9342F9D12378002B54
S1132D5040F2064018BF002007B0BDE8F0834FF4EE
S1132D60BE70704713B504460B461046A20753BF06
S1132D706FEA03434FF6FF7242EA03436FEA1343D9
S1132D800193042324F003010DEB0302FFF752FE29
S1132D9002B010BD08B5FFF705FEB0FA80F0400997
S1132DA008BD072B2DE9F04105460E4614461F4683
S1132DB002D90020BDE8F08101214FF48A40FFF7D9
S1132DC071FD0CB90120F5E744EA0503DA07F0D4F4
S1132DD0AB0726D531883A462846FFF7C3FF0028BB
S1132DE0E7D1023C032C05F1020506F102060DD9D8
S1132DF024F003084346324629463846FFF71AFEB4
S1132E000028D6D146444544A4EB0804002CD9D06C
S1132E1031883A462846FFF7A5FFB0FA80F040090A
S1132E20C8E7032CE4D8F3E707B501230091002297
S1132E301946FEF795FB03B05DF804FB70B5D1E9C4
S1132E400152AA4205D290F840302B449B1A402BE1
S1132E5010D9002012E00A6890F84040D65C90F83F
S1132E604120224402F03F020133013486548B6036
S1132E7080F840408B689D42EDD8012070BD2DE95B
S1132E80F84317469E46D1E9012390F840C0089DB7
S1132E909DF824909DF82880D21A624495420446F5
S1132EA00E460AD9FFF7CAFF002867D1102384F819
S1132EB0463041F20200BDE8F883754555D8002339
S1132EC094F840200AB19D4235D1D6E901219142BE
S1132ED001D29D4241D89D424DD1D4F88820294643
S1132EE03846FEF74DFFC4F88800B9F1000F04D04E
S1132EF0E06C2A46394600F017F994F84330B8F1EB
S1132F00000F06D08BB1A06C2B463A46394600F030
S1132F10F0F894F8433043B1E36DA26D2B4493422F
S1132F20E36524BF002384F84330636D2B44636559
S1132F3041F20300BFE794F84120A25CFA5494F8EC
S1132F404120013202F03F0284F8412094F84020ED
S1132F50013A84F840200133B2E73268525CFA54F3
S1132F60B2680132B2600133AFE741F201001023CD
S1132F7084F846309FE741F20200F8E700209AE720
S1132F802DE9F04799465B6804460F469046002BAE
S1132F9041D011F0030341D1D3F82838006E1B69E6
S1132FA081181D1DA9421BD31C33984218D2A84274
S1132FB0024638BF2A46101A3E18C5F168009942E5
S1132FC094BFC2EB010AC2EB030A104431465246D5
S1132FD0204400F015FB5246FF21304600F008FB68
S1132FE0226E48F204039A420CD802EB080048F21D
S1132FF00701884206D99B1AFA58C4F880204FF07A
S1133000FF32FA50D9E90035206E42463946A847C6
S1133010236E434423660020BDE8F08741F202009A
S1133020FAE72DE9F04103F02003002504464FF0B0
S1133030FF38C0E918550F461646A0F8405080F8EE
S11330404350A0F8445080F8465080F84230C0F80D
S113305088801822FF21683000F0CAFAC4E9127689
S1133060C4F88080C4F8848084F8905016B1304647
S113307000F050F80020BDE8F08149BA89B2484018
S1133080C0F30312424013B283EA0233580100F43E
S1133090FF509BB25840704738B504464518104657
S11330A0AC4200D138BD014614F8010BFFF7E5FF2F
S11330B0F6E7F8B5044616461D460F4600F0AEF98D
S11330C0DDE90612204600F0ADF90023636284F8BE
S11330D038703368C4F839307368C4F83D30B36865
S11330E0C4F841302B0C6DBA84F84530A4F846502E
S11330F0F8BD30B585B00D46194600F12803CDE979
S11331000152009300F1240200F1380300F0A8F901
S113311005B030BD10B5044600F02BF82046002160
S1133120BDE8104000F029B800F02CB8014600F0CA
S113313036B8036853B91C2350F8042F0AB9043B6A
S1133140FAD1002BCCBF002001207047002070472B
S113315038B5202204460D46002100F049FA05F155
S11331602003601E13F8012D00F8012FAB42F9D1A2
S113317038BD6822002100F03BBA03460020C3E9B1
S11331800000704707B500F128030190009300F197
S113319008030020FFF73EFA03B05DF804FB024683
S11331A00B4600F128010830FFF792BAEFF31080C4
S11331B072B6704700B962B6704784B00B6800936A
S11331C04B6801938B680293CB680393009B036065
S11331D0019B0360029B0360039B03600023009335
S11331E001930293039304B0704730B5D1E90223ED
S11331F0D1E90054056004600260036030BD30B55D
S11332000568046802680368C1E90054C1E902233F
S113321030BD7FB58A0704460B4610D06D4601F1D8
S11332201006186859682A4603C20833B342154683
S1133230F7D169462046FFF7D8FF04B070BD00916E
S1133240009904B0BDE87040FFF7CFBF30B58B07DD
S113325085B00C4610D06946FFF7D1FF0D462346D2
S113326004AC2A4603CAA24218605960154603F109
S11332700803F6D105B030BD0091009905B0BDE852
S11332803040FFF7BCBF10B5FFF7AFFFBDE81040FB
S11332901031FFF7AABF10B5FFF7B1FFBDE810402A
S11332A01031FFF7ACBF10B5FFF79FFF0C4610318C
S11332B0FFF79BFF04F12001FFF797FF04F13001B2
S11332C0BDE81040FFF791BF00F1424303F58013BE
S11332D0102A10B54FEA43130AD101221A6000F5EF
S11332E08870FFF76AFF1031BDE81040FFF765BF33
S11332F000221A602430F7E7F0B50B46990789B02D
S1133300044615462DD0082A19D16D4603F110063E
S1133310186859682A4603C20833B3421546F7D1E0
S1133320082269462046FFF7CFFF03226B460020A0
S1133330013A186003F10403FAD209B0F0BD6E46F5
S113334003F1200718685968324603C20833BB42A8
S11333501646F7D12A4669462046FFF7B5FF0722ED
S1133360E4E70093009909B0BDE8F040FFF7ACBF73
S1133370436823F01F030E290BD8DFE801F0080887
S11333800808080B0B0B080808080B0B0B00194363
S113339041607047194341F01001F9E770B50546E3
S11333A00E461446FFF702FF2B685C4034405C4035
S11333B02C60BDE87040FFF7FDBE0A7810B50AB96D
S11333C00223436000234362CB788C781B0443EAD6
S11333D004634C7A2343CC7943EA84230C7A43EA8A
S11333E004234C7843EA84138C7A43EAC413CC7ADA
S11333F043EA44130C7B43EA04134C7B43EAC403BF
S11334000C7943EA44334C79897943EA047343EAF7
S1133410417303600AB10123436010BD24220021DB
S113342000F0E6B870B515460E4624220021044685
S113343000F0DEF8C02D0DD0B5F5807F01D0802DD1
S11334400BD12046EA0840F8045B314600F0D8F876
S1133450002070BD6FF07100FBE76FF01F00F8E70C
S11334602DE9F04F87B08B460290039390467AB1D2
S11334701568029B1B68802B0CD100265E450FD378
S1133480B8F1000F40F0A180002007B0BDE8F08F34
S11334901546EEE7B3F5807FEFD06FF02000F4E738
S11334A05DB1119B109A9B5D525D5340129A013598
S11334B0935505F00F050136E0E7FFF757FB4FF48E
S11334C04043456003600446FFF770FE029951F8DB
S11334D0043B802B074614BF102208222046FFF726
S11334E00BFF04F18403184603990193FFF791FE3F
S11334F03846FFF75FFE119BABEB060703EB0609AB
S1133500129B27F00F0703EB060A09EB0703059349
S1133510059989454FF005034FF0030219D1119B1A
S11335203744DE19129B1F44119B03EB0B0A032340
S113353056452AD1FFF73AFE039906460198FFF74C
S113354085FE3046FFF736FE2046FFF719FB5E4640
S113355094E74821A160A36021698907FCD4A26093
S1133560FFF724FE4946049004F1A000FFF751FE42
S1133570514604F18000FFF769FE0498FFF71AFE34
S113358009F110090AF1100AC2E79DB94822A260A4
S11335900522A26022699207FCD4A360FFF706FE0D
S11335A01099814604F18000FFF750FE4846FFF76A
S11335B001FE0323109916F8012B495D01354A4099
S11335C007F8012B05F00F05B2E7C8F800505BE7D8
S11335D010B501390244904201D1002005E003787E
S11335E011F8014FA34201D0181B10BD0130F2E7BE
S11335F002440346934200D1704703F8011BF9E7E4
S11336000A44914200F1FF3300D1704710B511F81C
S1133610014B03F8014F9142F9D110BD00000000A5
S1133620F8B500BFF8BC08BC9E467047F8B500BFAB
S1133630F8BC08BC9E467047000000000000000073
S11336400000000000000000000000000000000076
S11336500000000000000000000000000000000066
S113366000000000252C000000000000810E000076
S11336700D0A4765636B6F20426F6F746C6F6164F2
S113368065722076582E59592E5A5A0D0A312E2019
S113369075706C6F61642067626C0D0A322E207243
S11336A0756E0D0A332E2065626C20696E666F0D8F
S11336B00A424C203E20000D0A4661696C65642074
S11336C0746F20626F6F740D0A000D0A66696C6571
S11336D0206572726F72203078000D0A626C6F631D
S11336E06B206572726F72203078000D0A53657218
S11336F069616C2075706C6F61642061626F7274B3
S113370065640D0A000D0A53657269616C20757059
S11337106C6F616420636F6D706C6574650D0A0075
S11337200D0A626567696E2075706C6F61640D0ABD
S113373000B814B6F1E0CFF3ADB7DD25C9FA79B717
S11337401300000013B779FAC925DDB7ADF3CFE054
S1133750F1B614B80102000000000000C0310000FE
S1133760400000000200040200000000000000000D
S11337700000000000000000000000000000000045
S11337800000000000000000000000000000000035
S11337900000000007B0CD5E020000000200040239
S11337A0C43100000040000000000400F0001000DC
S11337B0652C0000692C0000250F0000892C0000F6
S11337C0B92C000000000000E92C00005F2D00006F
S11337D000000000000000005F2C0000040000074F
S11337E000000D1013001A20263038404800000055
S11337F0EB17A6030201000003000000FA0606FA14
S11338000D04000003000000F40A0AF4050500009A
S113381001000000F50909F503070000010000009C
S1133820F60808F60608000000000000FE0101FE8C
S11338300808000000000000FD0303FD0A08000062
S113384000000000F90707F90E090000020000005B
S1133850F70A0AF70F0B000003000000FC0404FC45
S11338600B0C000003000000200000000001000019
S1133870050C0000FFFFFFFFFFFFFFFFFFFFFFFF3F
S11338800000000000000000000000000100000033
S1133890FFFFFFFF512563FCC2CAB9F3849E17A73B
S11338A0ADFAE6BCFFFFFFFFFFFFFFFF00000000D3
S11338B0FFFFFFFF96C298D84539A1F4A033EB2D42
S11338C0817D0377F240A463E5E6BCF847422CE12E
S11338D0F2D1176BF551BF376840B6CBCE5E316B72
S11338E05733CE2B169E0F7C4AEBE78E9B7F1AFE36
S11338F0E242E34F800000000000000000000000EE
S113390000000000000000000000000000000000B3
S113391000000000000000000000000000000000A3
S11339200000000000000000000000000000000093
S1133930000000006A09E667BB67AE853C6EF3725F
S1133940A54FF53A510E527F9B05688C1F83D9AB66
S10739505BE0CD194E
S10F39546039000008100020180000007A
S1133960F00F1003000000003611002013000000C7
S11339700900000000010000020200001300000022
S1133980F00F1003000000003612002013000000A6
S1133990090000000002000001010000D3FFFFFF46
S11339A0F07F1030B610002000000000000000007E
S11339B00000014000220400310900000909000050
S9032B9F32
